{
  "contracts/SBT_DEMO.sol": {
    "Web3LearnNFT": {
      "abi": [
        {
          "anonymous": false,
          "inputs": [
            {
              "indexed": true,
              "internalType": "address",
              "name": "owner",
              "type": "address"
            },
            {
              "indexed": true,
              "internalType": "address",
              "name": "spender",
              "type": "address"
            },
            {
              "indexed": true,
              "internalType": "uint256",
              "name": "id",
              "type": "uint256"
            }
          ],
          "name": "Approval",
          "type": "event"
        },
        {
          "anonymous": false,
          "inputs": [
            {
              "indexed": true,
              "internalType": "address",
              "name": "owner",
              "type": "address"
            },
            {
              "indexed": true,
              "internalType": "address",
              "name": "operator",
              "type": "address"
            },
            {
              "indexed": false,
              "internalType": "bool",
              "name": "approved",
              "type": "bool"
            }
          ],
          "name": "ApprovalForAll",
          "type": "event"
        },
        {
          "anonymous": false,
          "inputs": [
            {
              "indexed": true,
              "internalType": "address",
              "name": "from",
              "type": "address"
            },
            {
              "indexed": true,
              "internalType": "address",
              "name": "to",
              "type": "address"
            },
            {
              "components": [
                {
                  "internalType": "uint256",
                  "name": "id",
                  "type": "uint256"
                },
                {
                  "internalType": "string",
                  "name": "title",
                  "type": "string"
                },
                {
                  "internalType": "string",
                  "name": "url",
                  "type": "string"
                }
              ],
              "indexed": false,
              "internalType": "struct ERC721.NFT",
              "name": "id",
              "type": "tuple"
            }
          ],
          "name": "Transfer",
          "type": "event"
        },
        {
          "inputs": [
            {
              "internalType": "address",
              "name": "user",
              "type": "address"
            }
          ],
          "name": "_getNFT",
          "outputs": [
            {
              "components": [
                {
                  "internalType": "uint256",
                  "name": "id",
                  "type": "uint256"
                },
                {
                  "internalType": "string",
                  "name": "title",
                  "type": "string"
                },
                {
                  "internalType": "string",
                  "name": "url",
                  "type": "string"
                }
              ],
              "internalType": "struct ERC721.NFT[]",
              "name": "nfts_",
              "type": "tuple[]"
            }
          ],
          "stateMutability": "view",
          "type": "function"
        },
        {
          "inputs": [
            {
              "internalType": "address",
              "name": "spender",
              "type": "address"
            },
            {
              "internalType": "uint256",
              "name": "id",
              "type": "uint256"
            }
          ],
          "name": "approve",
          "outputs": [],
          "stateMutability": "nonpayable",
          "type": "function"
        },
        {
          "inputs": [
            {
              "internalType": "address",
              "name": "owner",
              "type": "address"
            }
          ],
          "name": "balanceOf",
          "outputs": [
            {
              "internalType": "uint256",
              "name": "",
              "type": "uint256"
            }
          ],
          "stateMutability": "view",
          "type": "function"
        },
        {
          "inputs": [
            {
              "internalType": "address",
              "name": "user",
              "type": "address"
            }
          ],
          "name": "checkIsMinted",
          "outputs": [
            {
              "internalType": "bool[]",
              "name": "",
              "type": "bool[]"
            }
          ],
          "stateMutability": "view",
          "type": "function"
        },
        {
          "inputs": [
            {
              "internalType": "uint256",
              "name": "id",
              "type": "uint256"
            }
          ],
          "name": "getApproved",
          "outputs": [
            {
              "internalType": "address",
              "name": "",
              "type": "address"
            }
          ],
          "stateMutability": "view",
          "type": "function"
        },
        {
          "inputs": [
            {
              "internalType": "address",
              "name": "user",
              "type": "address"
            }
          ],
          "name": "getIsMint",
          "outputs": [
            {
              "internalType": "bool[]",
              "name": "isMints",
              "type": "bool[]"
            }
          ],
          "stateMutability": "view",
          "type": "function"
        },
        {
          "inputs": [
            {
              "internalType": "address",
              "name": "user",
              "type": "address"
            }
          ],
          "name": "getNFT",
          "outputs": [
            {
              "components": [
                {
                  "internalType": "uint256",
                  "name": "id",
                  "type": "uint256"
                },
                {
                  "internalType": "string",
                  "name": "title",
                  "type": "string"
                },
                {
                  "internalType": "string",
                  "name": "url",
                  "type": "string"
                }
              ],
              "internalType": "struct ERC721.NFT[]",
              "name": "nfts",
              "type": "tuple[]"
            }
          ],
          "stateMutability": "view",
          "type": "function"
        },
        {
          "inputs": [
            {
              "internalType": "address",
              "name": "",
              "type": "address"
            },
            {
              "internalType": "address",
              "name": "",
              "type": "address"
            }
          ],
          "name": "isApprovedForAll",
          "outputs": [
            {
              "internalType": "bool",
              "name": "",
              "type": "bool"
            }
          ],
          "stateMutability": "view",
          "type": "function"
        },
        {
          "inputs": [
            {
              "internalType": "address",
              "name": "",
              "type": "address"
            },
            {
              "internalType": "uint256",
              "name": "",
              "type": "uint256"
            }
          ],
          "name": "isMint",
          "outputs": [
            {
              "internalType": "bool",
              "name": "",
              "type": "bool"
            }
          ],
          "stateMutability": "view",
          "type": "function"
        },
        {
          "inputs": [
            {
              "internalType": "uint256",
              "name": "id",
              "type": "uint256"
            },
            {
              "internalType": "address",
              "name": "to",
              "type": "address"
            },
            {
              "internalType": "string",
              "name": "_title",
              "type": "string"
            },
            {
              "internalType": "string",
              "name": "_url",
              "type": "string"
            }
          ],
          "name": "mint",
          "outputs": [],
          "stateMutability": "nonpayable",
          "type": "function"
        },
        {
          "inputs": [
            {
              "internalType": "uint256",
              "name": "id",
              "type": "uint256"
            }
          ],
          "name": "ownerOf",
          "outputs": [
            {
              "internalType": "address",
              "name": "owner",
              "type": "address"
            }
          ],
          "stateMutability": "view",
          "type": "function"
        },
        {
          "inputs": [
            {
              "internalType": "address",
              "name": "from",
              "type": "address"
            },
            {
              "internalType": "address",
              "name": "to",
              "type": "address"
            },
            {
              "internalType": "uint256",
              "name": "id",
              "type": "uint256"
            }
          ],
          "name": "safeTransferFrom",
          "outputs": [],
          "stateMutability": "nonpayable",
          "type": "function"
        },
        {
          "inputs": [
            {
              "internalType": "address",
              "name": "from",
              "type": "address"
            },
            {
              "internalType": "address",
              "name": "to",
              "type": "address"
            },
            {
              "internalType": "uint256",
              "name": "id",
              "type": "uint256"
            },
            {
              "internalType": "bytes",
              "name": "data",
              "type": "bytes"
            }
          ],
          "name": "safeTransferFrom",
          "outputs": [],
          "stateMutability": "nonpayable",
          "type": "function"
        },
        {
          "inputs": [
            {
              "internalType": "address",
              "name": "operator",
              "type": "address"
            },
            {
              "internalType": "bool",
              "name": "approved",
              "type": "bool"
            }
          ],
          "name": "setApprovalForAll",
          "outputs": [],
          "stateMutability": "nonpayable",
          "type": "function"
        },
        {
          "inputs": [
            {
              "internalType": "bytes4",
              "name": "interfaceId",
              "type": "bytes4"
            }
          ],
          "name": "supportsInterface",
          "outputs": [
            {
              "internalType": "bool",
              "name": "",
              "type": "bool"
            }
          ],
          "stateMutability": "pure",
          "type": "function"
        },
        {
          "inputs": [
            {
              "internalType": "address",
              "name": "from",
              "type": "address"
            },
            {
              "internalType": "address",
              "name": "to",
              "type": "address"
            },
            {
              "internalType": "uint256",
              "name": "id",
              "type": "uint256"
            }
          ],
          "name": "transferFrom",
          "outputs": [],
          "stateMutability": "nonpayable",
          "type": "function"
        }
      ],
      "evm": {
        "bytecode": {
          "linkReferences": {},
          "object": "608060405234801561001057600080fd5b506120e9806100206000396000f3fe608060405234801561001057600080fd5b50600436106101005760003560e01c80636352211e11610097578063a22cb46511610066578063a22cb46514610309578063b88d4fde14610325578063e932ad1914610341578063e985e9c51461035d57610100565b80636352211e146102495780636e13bd201461027957806370a08231146102a957806399f11010146102d957610100565b8063161a6c1e116100d3578063161a6c1e146101b15780631a66ab05146101e157806323b872dd1461021157806342842e0e1461022d57610100565b806301ffc9a71461010557806305bde45e14610135578063081812fc14610165578063095ea7b314610195575b600080fd5b61011f600480360381019061011a9190611085565b61038d565b60405161012c91906110cd565b60405180910390f35b61014f600480360381019061014a919061117c565b61045f565b60405161015c91906110cd565b60405180910390f35b61017f600480360381019061017a91906111bc565b61048e565b60405161018c91906111f8565b60405180910390f35b6101af60048036038101906101aa919061117c565b610495565b005b6101cb60048036038101906101c69190611213565b610499565b6040516101d891906113f8565b60405180910390f35b6101fb60048036038101906101f69190611213565b6104ab565b60405161020891906114d8565b60405180910390f35b61022b600480360381019061022691906114fa565b6104bd565b005b610247600480360381019061024291906114fa565b610531565b005b610263600480360381019061025e91906111bc565b610669565b60405161027091906111f8565b60405180910390f35b610293600480360381019061028e9190611213565b610670565b6040516102a091906114d8565b60405180910390f35b6102c360048036038101906102be9190611213565b61076c565b6040516102d0919061155c565b60405180910390f35b6102f360048036038101906102ee9190611213565b610823565b60405161030091906113f8565b60405180910390f35b610323600480360381019061031e91906115a3565b6109ee565b005b61033f600480360381019061033a9190611648565b610aeb565b005b61035b60048036038101906103569190611800565b610c98565b005b6103776004803603810190610372919061189f565b610caa565b60405161038491906110cd565b60405180910390f35b60007f80ac58cd000000000000000000000000000000000000000000000000000000007bffffffffffffffffffffffffffffffffffffffffffffffffffffffff1916827bffffffffffffffffffffffffffffffffffffffffffffffffffffffff1916148061045857507f01ffc9a7000000000000000000000000000000000000000000000000000000007bffffffffffffffffffffffffffffffffffffffffffffffffffffffff1916827bffffffffffffffffffffffffffffffffffffffffffffffffffffffff1916145b9050919050565b60036020528160005260406000206020528060005260406000206000915091509054906101000a900460ff1681565b6000919050565b5050565b60606104a482610823565b9050919050565b60606104b682610670565b9050919050565b600073ffffffffffffffffffffffffffffffffffffffff168373ffffffffffffffffffffffffffffffffffffffff161461052c576040517f08c379a00000000000000000000000000000000000000000000000000000000081526004016105239061193c565b60405180910390fd5b505050565b61053c8383836104bd565b60008273ffffffffffffffffffffffffffffffffffffffff163b1480610625575063150b7a0260e01b7bffffffffffffffffffffffffffffffffffffffffffffffffffffffff19168273ffffffffffffffffffffffffffffffffffffffff1663150b7a023386856040518463ffffffff1660e01b81526004016105c193929190611993565b6020604051808303816000875af11580156105e0573d6000803e3d6000fd5b505050506040513d601f19601f8201168201806040525081019061060491906119f2565b7bffffffffffffffffffffffffffffffffffffffffffffffffffffffff1916145b610664576040517f08c379a000000000000000000000000000000000000000000000000000000000815260040161065b90611a6b565b60405180910390fd5b505050565b6000919050565b60606000600367ffffffffffffffff81111561068f5761068e6116d5565b5b6040519080825280602002602001820160405280156106bd5781602001602082028036833780820191505090505b50905060005b600381101561076257600360008573ffffffffffffffffffffffffffffffffffffffff1673ffffffffffffffffffffffffffffffffffffffff168152602001908152602001600020600082815260200190815260200160002060009054906101000a900460ff1682828151811061073d5761073c611a8b565b5b602002602001019015159081151581525050808061075a90611ae9565b9150506106c3565b5080915050919050565b60008073ffffffffffffffffffffffffffffffffffffffff168273ffffffffffffffffffffffffffffffffffffffff16036107dc576040517f08c379a00000000000000000000000000000000000000000000000000000000081526004016107d390611b7d565b60405180910390fd5b600160008373ffffffffffffffffffffffffffffffffffffffff1673ffffffffffffffffffffffffffffffffffffffff168152602001908152602001600020549050919050565b60606000808373ffffffffffffffffffffffffffffffffffffffff1673ffffffffffffffffffffffffffffffffffffffff168152602001908152602001600020805480602002602001604051908101604052809291908181526020016000905b828210156109e35783829060005260206000209060030201604051806060016040529081600082015481526020016001820180546108c090611bcc565b80601f01602080910402602001604051908101604052809291908181526020018280546108ec90611bcc565b80156109395780601f1061090e57610100808354040283529160200191610939565b820191906000526020600020905b81548152906001019060200180831161091c57829003601f168201915b5050505050815260200160028201805461095290611bcc565b80601f016020809104026020016040519081016040528092919081815260200182805461097e90611bcc565b80156109cb5780601f106109a0576101008083540402835291602001916109cb565b820191906000526020600020905b8154815290600101906020018083116109ae57829003601f168201915b50505050508152505081526020019060010190610883565b505050509050919050565b80600460003373ffffffffffffffffffffffffffffffffffffffff1673ffffffffffffffffffffffffffffffffffffffff16815260200190815260200160002060008473ffffffffffffffffffffffffffffffffffffffff1673ffffffffffffffffffffffffffffffffffffffff16815260200190815260200160002060006101000a81548160ff0219169083151502179055508173ffffffffffffffffffffffffffffffffffffffff163373ffffffffffffffffffffffffffffffffffffffff167f17307eab39ab6107e8899845ad3d59bd9653f200f220920489ca2b5937696c3183604051610adf91906110cd565b60405180910390a35050565b600073ffffffffffffffffffffffffffffffffffffffff168573ffffffffffffffffffffffffffffffffffffffff1614610b5a576040517f08c379a0000000000000000000000000000000000000000000000000000000008152600401610b519061193c565b60405180910390fd5b610b658585856104bd565b60008473ffffffffffffffffffffffffffffffffffffffff163b1480610c52575063150b7a0260e01b7bffffffffffffffffffffffffffffffffffffffffffffffffffffffff19168473ffffffffffffffffffffffffffffffffffffffff1663150b7a0233888787876040518663ffffffff1660e01b8152600401610bee959493929190611c2a565b6020604051808303816000875af1158015610c0d573d6000803e3d6000fd5b505050506040513d601f19601f82011682018060405250810190610c3191906119f2565b7bffffffffffffffffffffffffffffffffffffffffffffffffffffffff1916145b610c91576040517f08c379a0000000000000000000000000000000000000000000000000000000008152600401610c8890611a6b565b60405180910390fd5b5050505050565b610ca484848484610cd9565b50505050565b60046020528160005260406000206020528060005260406000206000915091509054906101000a900460ff1681565b60038410610d1c576040517f08c379a0000000000000000000000000000000000000000000000000000000008152600401610d1390611cc4565b60405180910390fd5b600073ffffffffffffffffffffffffffffffffffffffff168373ffffffffffffffffffffffffffffffffffffffff1603610d8b576040517f08c379a0000000000000000000000000000000000000000000000000000000008152600401610d8290611d30565b60405180910390fd5b60011515600360003373ffffffffffffffffffffffffffffffffffffffff1673ffffffffffffffffffffffffffffffffffffffff168152602001908152602001600020600086815260200190815260200160002060009054906101000a900460ff16151503610e2f576040517f08c379a0000000000000000000000000000000000000000000000000000000008152600401610e2690611d9c565b60405180910390fd5b60006040518060600160405280868152602001848152602001838152509050600160008573ffffffffffffffffffffffffffffffffffffffff1673ffffffffffffffffffffffffffffffffffffffff1681526020019081526020016000206000815480929190610e9e90611ae9565b91905055506000808573ffffffffffffffffffffffffffffffffffffffff1673ffffffffffffffffffffffffffffffffffffffff168152602001908152602001600020819080600181540180825580915050600190039060005260206000209060030201600090919091909150600082015181600001556020820151816001019081610f2a9190611f68565b506040820151816002019081610f409190611f68565b5050506001600360003373ffffffffffffffffffffffffffffffffffffffff1673ffffffffffffffffffffffffffffffffffffffff168152602001908152602001600020600087815260200190815260200160002060006101000a81548160ff0219169083151502179055508373ffffffffffffffffffffffffffffffffffffffff16600073ffffffffffffffffffffffffffffffffffffffff167f4da6a3240621d0cdfdabd4aa86427d9a0764e0ff7b9bc703ccf0505ceed780918360405161100a9190612091565b60405180910390a35050505050565b6000604051905090565b600080fd5b600080fd5b60007fffffffff0000000000000000000000000000000000000000000000000000000082169050919050565b6110628161102d565b811461106d57600080fd5b50565b60008135905061107f81611059565b92915050565b60006020828403121561109b5761109a611023565b5b60006110a984828501611070565b91505092915050565b60008115159050919050565b6110c7816110b2565b82525050565b60006020820190506110e260008301846110be565b92915050565b600073ffffffffffffffffffffffffffffffffffffffff82169050919050565b6000611113826110e8565b9050919050565b61112381611108565b811461112e57600080fd5b50565b6000813590506111408161111a565b92915050565b6000819050919050565b61115981611146565b811461116457600080fd5b50565b60008135905061117681611150565b92915050565b6000806040838503121561119357611192611023565b5b60006111a185828601611131565b92505060206111b285828601611167565b9150509250929050565b6000602082840312156111d2576111d1611023565b5b60006111e084828501611167565b91505092915050565b6111f281611108565b82525050565b600060208201905061120d60008301846111e9565b92915050565b60006020828403121561122957611228611023565b5b600061123784828501611131565b91505092915050565b600081519050919050565b600082825260208201905092915050565b6000819050602082019050919050565b61127581611146565b82525050565b600081519050919050565b600082825260208201905092915050565b60005b838110156112b557808201518184015260208101905061129a565b60008484015250505050565b6000601f19601f8301169050919050565b60006112dd8261127b565b6112e78185611286565b93506112f7818560208601611297565b611300816112c1565b840191505092915050565b6000606083016000830151611323600086018261126c565b506020830151848203602086015261133b82826112d2565b9150506040830151848203604086015261135582826112d2565b9150508091505092915050565b600061136e838361130b565b905092915050565b6000602082019050919050565b600061138e82611240565b611398818561124b565b9350836020820285016113aa8561125c565b8060005b858110156113e657848403895281516113c78582611362565b94506113d283611376565b925060208a019950506001810190506113ae565b50829750879550505050505092915050565b600060208201905081810360008301526114128184611383565b905092915050565b600081519050919050565b600082825260208201905092915050565b6000819050602082019050919050565b61144f816110b2565b82525050565b60006114618383611446565b60208301905092915050565b6000602082019050919050565b60006114858261141a565b61148f8185611425565b935061149a83611436565b8060005b838110156114cb5781516114b28882611455565b97506114bd8361146d565b92505060018101905061149e565b5085935050505092915050565b600060208201905081810360008301526114f2818461147a565b905092915050565b60008060006060848603121561151357611512611023565b5b600061152186828701611131565b935050602061153286828701611131565b925050604061154386828701611167565b9150509250925092565b61155681611146565b82525050565b6000602082019050611571600083018461154d565b92915050565b611580816110b2565b811461158b57600080fd5b50565b60008135905061159d81611577565b92915050565b600080604083850312156115ba576115b9611023565b5b60006115c885828601611131565b92505060206115d98582860161158e565b9150509250929050565b600080fd5b600080fd5b600080fd5b60008083601f840112611608576116076115e3565b5b8235905067ffffffffffffffff811115611625576116246115e8565b5b602083019150836001820283011115611641576116406115ed565b5b9250929050565b60008060008060006080868803121561166457611663611023565b5b600061167288828901611131565b955050602061168388828901611131565b945050604061169488828901611167565b935050606086013567ffffffffffffffff8111156116b5576116b4611028565b5b6116c1888289016115f2565b92509250509295509295909350565b600080fd5b7f4e487b7100000000000000000000000000000000000000000000000000000000600052604160045260246000fd5b61170d826112c1565b810181811067ffffffffffffffff8211171561172c5761172b6116d5565b5b80604052505050565b600061173f611019565b905061174b8282611704565b919050565b600067ffffffffffffffff82111561176b5761176a6116d5565b5b611774826112c1565b9050602081019050919050565b82818337600083830152505050565b60006117a361179e84611750565b611735565b9050828152602081018484840111156117bf576117be6116d0565b5b6117ca848285611781565b509392505050565b600082601f8301126117e7576117e66115e3565b5b81356117f7848260208601611790565b91505092915050565b6000806000806080858703121561181a57611819611023565b5b600061182887828801611167565b945050602061183987828801611131565b935050604085013567ffffffffffffffff81111561185a57611859611028565b5b611866878288016117d2565b925050606085013567ffffffffffffffff81111561188757611886611028565b5b611893878288016117d2565b91505092959194509250565b600080604083850312156118b6576118b5611023565b5b60006118c485828601611131565b92505060206118d585828601611131565b9150509250929050565b600082825260208201905092915050565b7f5342540000000000000000000000000000000000000000000000000000000000600082015250565b60006119266003836118df565b9150611931826118f0565b602082019050919050565b6000602082019050818103600083015261195581611919565b9050919050565b600082825260208201905092915050565b50565b600061197d60008361195c565b91506119888261196d565b600082019050919050565b60006080820190506119a860008301866111e9565b6119b560208301856111e9565b6119c2604083018461154d565b81810360608301526119d381611970565b9050949350505050565b6000815190506119ec81611059565b92915050565b600060208284031215611a0857611a07611023565b5b6000611a16848285016119dd565b91505092915050565b7f756e7361666520726563697069656e7400000000000000000000000000000000600082015250565b6000611a556010836118df565b9150611a6082611a1f565b602082019050919050565b60006020820190508181036000830152611a8481611a48565b9050919050565b7f4e487b7100000000000000000000000000000000000000000000000000000000600052603260045260246000fd5b7f4e487b7100000000000000000000000000000000000000000000000000000000600052601160045260246000fd5b6000611af482611146565b91507fffffffffffffffffffffffffffffffffffffffffffffffffffffffffffffffff8203611b2657611b25611aba565b5b600182019050919050565b7f6f776e6572203d207a65726f2061646472657373000000000000000000000000600082015250565b6000611b676014836118df565b9150611b7282611b31565b602082019050919050565b60006020820190508181036000830152611b9681611b5a565b9050919050565b7f4e487b7100000000000000000000000000000000000000000000000000000000600052602260045260246000fd5b60006002820490506001821680611be457607f821691505b602082108103611bf757611bf6611b9d565b5b50919050565b6000611c09838561195c565b9350611c16838584611781565b611c1f836112c1565b840190509392505050565b6000608082019050611c3f60008301886111e9565b611c4c60208301876111e9565b611c59604083018661154d565b8181036060830152611c6c818486611bfd565b90509695505050505050565b7f4944203d3d206f6e6c7920302c312c3220000000000000000000000000000000600082015250565b6000611cae6011836118df565b9150611cb982611c78565b602082019050919050565b60006020820190508181036000830152611cdd81611ca1565b9050919050565b7f6d696e7420746f207a65726f2061646472657373000000000000000000000000600082015250565b6000611d1a6014836118df565b9150611d2582611ce4565b602082019050919050565b60006020820190508181036000830152611d4981611d0d565b9050919050565b7f416c7265616479204d696e746564000000000000000000000000000000000000600082015250565b6000611d86600e836118df565b9150611d9182611d50565b602082019050919050565b60006020820190508181036000830152611db581611d79565b9050919050565b60008190508160005260206000209050919050565b60006020601f8301049050919050565b600082821b905092915050565b600060088302611e1e7fffffffffffffffffffffffffffffffffffffffffffffffffffffffffffffffff82611de1565b611e288683611de1565b95508019841693508086168417925050509392505050565b6000819050919050565b6000611e65611e60611e5b84611146565b611e40565b611146565b9050919050565b6000819050919050565b611e7f83611e4a565b611e93611e8b82611e6c565b848454611dee565b825550505050565b600090565b611ea8611e9b565b611eb3818484611e76565b505050565b5b81811015611ed757611ecc600082611ea0565b600181019050611eb9565b5050565b601f821115611f1c57611eed81611dbc565b611ef684611dd1565b81016020851015611f05578190505b611f19611f1185611dd1565b830182611eb8565b50505b505050565b600082821c905092915050565b6000611f3f60001984600802611f21565b1980831691505092915050565b6000611f588383611f2e565b9150826002028217905092915050565b611f718261127b565b67ffffffffffffffff811115611f8a57611f896116d5565b5b611f948254611bcc565b611f9f828285611edb565b600060209050601f831160018114611fd25760008415611fc0578287015190505b611fca8582611f4c565b865550612032565b601f198416611fe086611dbc565b60005b8281101561200857848901518255600182019150602085019450602081019050611fe3565b868310156120255784890151612021601f891682611f2e565b8355505b6001600288020188555050505b505050505050565b6000606083016000830151612052600086018261126c565b506020830151848203602086015261206a82826112d2565b9150506040830151848203604086015261208482826112d2565b9150508091505092915050565b600060208201905081810360008301526120ab818461203a565b90509291505056fea264697066735822122025bb9e034aafc77314bd0bffd06723c4512c2dbca15005c2ea6a9f41027b33e164736f6c63430008110033",
          "opcodes": "PUSH1 0x80 PUSH1 0x40 MSTORE CALLVALUE DUP1 ISZERO PUSH2 0x10 JUMPI PUSH1 0x0 DUP1 REVERT JUMPDEST POP PUSH2 0x20E9 DUP1 PUSH2 0x20 PUSH1 0x0 CODECOPY PUSH1 0x0 RETURN INVALID PUSH1 0x80 PUSH1 0x40 MSTORE CALLVALUE DUP1 ISZERO PUSH2 0x10 JUMPI PUSH1 0x0 DUP1 REVERT JUMPDEST POP PUSH1 0x4 CALLDATASIZE LT PUSH2 0x100 JUMPI PUSH1 0x0 CALLDATALOAD PUSH1 0xE0 SHR DUP1 PUSH4 0x6352211E GT PUSH2 0x97 JUMPI DUP1 PUSH4 0xA22CB465 GT PUSH2 0x66 JUMPI DUP1 PUSH4 0xA22CB465 EQ PUSH2 0x309 JUMPI DUP1 PUSH4 0xB88D4FDE EQ PUSH2 0x325 JUMPI DUP1 PUSH4 0xE932AD19 EQ PUSH2 0x341 JUMPI DUP1 PUSH4 0xE985E9C5 EQ PUSH2 0x35D JUMPI PUSH2 0x100 JUMP JUMPDEST DUP1 PUSH4 0x6352211E EQ PUSH2 0x249 JUMPI DUP1 PUSH4 0x6E13BD20 EQ PUSH2 0x279 JUMPI DUP1 PUSH4 0x70A08231 EQ PUSH2 0x2A9 JUMPI DUP1 PUSH4 0x99F11010 EQ PUSH2 0x2D9 JUMPI PUSH2 0x100 JUMP JUMPDEST DUP1 PUSH4 0x161A6C1E GT PUSH2 0xD3 JUMPI DUP1 PUSH4 0x161A6C1E EQ PUSH2 0x1B1 JUMPI DUP1 PUSH4 0x1A66AB05 EQ PUSH2 0x1E1 JUMPI DUP1 PUSH4 0x23B872DD EQ PUSH2 0x211 JUMPI DUP1 PUSH4 0x42842E0E EQ PUSH2 0x22D JUMPI PUSH2 0x100 JUMP JUMPDEST DUP1 PUSH4 0x1FFC9A7 EQ PUSH2 0x105 JUMPI DUP1 PUSH4 0x5BDE45E EQ PUSH2 0x135 JUMPI DUP1 PUSH4 0x81812FC EQ PUSH2 0x165 JUMPI DUP1 PUSH4 0x95EA7B3 EQ PUSH2 0x195 JUMPI JUMPDEST PUSH1 0x0 DUP1 REVERT JUMPDEST PUSH2 0x11F PUSH1 0x4 DUP1 CALLDATASIZE SUB DUP2 ADD SWAP1 PUSH2 0x11A SWAP2 SWAP1 PUSH2 0x1085 JUMP JUMPDEST PUSH2 0x38D JUMP JUMPDEST PUSH1 0x40 MLOAD PUSH2 0x12C SWAP2 SWAP1 PUSH2 0x10CD JUMP JUMPDEST PUSH1 0x40 MLOAD DUP1 SWAP2 SUB SWAP1 RETURN JUMPDEST PUSH2 0x14F PUSH1 0x4 DUP1 CALLDATASIZE SUB DUP2 ADD SWAP1 PUSH2 0x14A SWAP2 SWAP1 PUSH2 0x117C JUMP JUMPDEST PUSH2 0x45F JUMP JUMPDEST PUSH1 0x40 MLOAD PUSH2 0x15C SWAP2 SWAP1 PUSH2 0x10CD JUMP JUMPDEST PUSH1 0x40 MLOAD DUP1 SWAP2 SUB SWAP1 RETURN JUMPDEST PUSH2 0x17F PUSH1 0x4 DUP1 CALLDATASIZE SUB DUP2 ADD SWAP1 PUSH2 0x17A SWAP2 SWAP1 PUSH2 0x11BC JUMP JUMPDEST PUSH2 0x48E JUMP JUMPDEST PUSH1 0x40 MLOAD PUSH2 0x18C SWAP2 SWAP1 PUSH2 0x11F8 JUMP JUMPDEST PUSH1 0x40 MLOAD DUP1 SWAP2 SUB SWAP1 RETURN JUMPDEST PUSH2 0x1AF PUSH1 0x4 DUP1 CALLDATASIZE SUB DUP2 ADD SWAP1 PUSH2 0x1AA SWAP2 SWAP1 PUSH2 0x117C JUMP JUMPDEST PUSH2 0x495 JUMP JUMPDEST STOP JUMPDEST PUSH2 0x1CB PUSH1 0x4 DUP1 CALLDATASIZE SUB DUP2 ADD SWAP1 PUSH2 0x1C6 SWAP2 SWAP1 PUSH2 0x1213 JUMP JUMPDEST PUSH2 0x499 JUMP JUMPDEST PUSH1 0x40 MLOAD PUSH2 0x1D8 SWAP2 SWAP1 PUSH2 0x13F8 JUMP JUMPDEST PUSH1 0x40 MLOAD DUP1 SWAP2 SUB SWAP1 RETURN JUMPDEST PUSH2 0x1FB PUSH1 0x4 DUP1 CALLDATASIZE SUB DUP2 ADD SWAP1 PUSH2 0x1F6 SWAP2 SWAP1 PUSH2 0x1213 JUMP JUMPDEST PUSH2 0x4AB JUMP JUMPDEST PUSH1 0x40 MLOAD PUSH2 0x208 SWAP2 SWAP1 PUSH2 0x14D8 JUMP JUMPDEST PUSH1 0x40 MLOAD DUP1 SWAP2 SUB SWAP1 RETURN JUMPDEST PUSH2 0x22B PUSH1 0x4 DUP1 CALLDATASIZE SUB DUP2 ADD SWAP1 PUSH2 0x226 SWAP2 SWAP1 PUSH2 0x14FA JUMP JUMPDEST PUSH2 0x4BD JUMP JUMPDEST STOP JUMPDEST PUSH2 0x247 PUSH1 0x4 DUP1 CALLDATASIZE SUB DUP2 ADD SWAP1 PUSH2 0x242 SWAP2 SWAP1 PUSH2 0x14FA JUMP JUMPDEST PUSH2 0x531 JUMP JUMPDEST STOP JUMPDEST PUSH2 0x263 PUSH1 0x4 DUP1 CALLDATASIZE SUB DUP2 ADD SWAP1 PUSH2 0x25E SWAP2 SWAP1 PUSH2 0x11BC JUMP JUMPDEST PUSH2 0x669 JUMP JUMPDEST PUSH1 0x40 MLOAD PUSH2 0x270 SWAP2 SWAP1 PUSH2 0x11F8 JUMP JUMPDEST PUSH1 0x40 MLOAD DUP1 SWAP2 SUB SWAP1 RETURN JUMPDEST PUSH2 0x293 PUSH1 0x4 DUP1 CALLDATASIZE SUB DUP2 ADD SWAP1 PUSH2 0x28E SWAP2 SWAP1 PUSH2 0x1213 JUMP JUMPDEST PUSH2 0x670 JUMP JUMPDEST PUSH1 0x40 MLOAD PUSH2 0x2A0 SWAP2 SWAP1 PUSH2 0x14D8 JUMP JUMPDEST PUSH1 0x40 MLOAD DUP1 SWAP2 SUB SWAP1 RETURN JUMPDEST PUSH2 0x2C3 PUSH1 0x4 DUP1 CALLDATASIZE SUB DUP2 ADD SWAP1 PUSH2 0x2BE SWAP2 SWAP1 PUSH2 0x1213 JUMP JUMPDEST PUSH2 0x76C JUMP JUMPDEST PUSH1 0x40 MLOAD PUSH2 0x2D0 SWAP2 SWAP1 PUSH2 0x155C JUMP JUMPDEST PUSH1 0x40 MLOAD DUP1 SWAP2 SUB SWAP1 RETURN JUMPDEST PUSH2 0x2F3 PUSH1 0x4 DUP1 CALLDATASIZE SUB DUP2 ADD SWAP1 PUSH2 0x2EE SWAP2 SWAP1 PUSH2 0x1213 JUMP JUMPDEST PUSH2 0x823 JUMP JUMPDEST PUSH1 0x40 MLOAD PUSH2 0x300 SWAP2 SWAP1 PUSH2 0x13F8 JUMP JUMPDEST PUSH1 0x40 MLOAD DUP1 SWAP2 SUB SWAP1 RETURN JUMPDEST PUSH2 0x323 PUSH1 0x4 DUP1 CALLDATASIZE SUB DUP2 ADD SWAP1 PUSH2 0x31E SWAP2 SWAP1 PUSH2 0x15A3 JUMP JUMPDEST PUSH2 0x9EE JUMP JUMPDEST STOP JUMPDEST PUSH2 0x33F PUSH1 0x4 DUP1 CALLDATASIZE SUB DUP2 ADD SWAP1 PUSH2 0x33A SWAP2 SWAP1 PUSH2 0x1648 JUMP JUMPDEST PUSH2 0xAEB JUMP JUMPDEST STOP JUMPDEST PUSH2 0x35B PUSH1 0x4 DUP1 CALLDATASIZE SUB DUP2 ADD SWAP1 PUSH2 0x356 SWAP2 SWAP1 PUSH2 0x1800 JUMP JUMPDEST PUSH2 0xC98 JUMP JUMPDEST STOP JUMPDEST PUSH2 0x377 PUSH1 0x4 DUP1 CALLDATASIZE SUB DUP2 ADD SWAP1 PUSH2 0x372 SWAP2 SWAP1 PUSH2 0x189F JUMP JUMPDEST PUSH2 0xCAA JUMP JUMPDEST PUSH1 0x40 MLOAD PUSH2 0x384 SWAP2 SWAP1 PUSH2 0x10CD JUMP JUMPDEST PUSH1 0x40 MLOAD DUP1 SWAP2 SUB SWAP1 RETURN JUMPDEST PUSH1 0x0 PUSH32 0x80AC58CD00000000000000000000000000000000000000000000000000000000 PUSH28 0xFFFFFFFFFFFFFFFFFFFFFFFFFFFFFFFFFFFFFFFFFFFFFFFFFFFFFFFF NOT AND DUP3 PUSH28 0xFFFFFFFFFFFFFFFFFFFFFFFFFFFFFFFFFFFFFFFFFFFFFFFFFFFFFFFF NOT AND EQ DUP1 PUSH2 0x458 JUMPI POP PUSH32 0x1FFC9A700000000000000000000000000000000000000000000000000000000 PUSH28 0xFFFFFFFFFFFFFFFFFFFFFFFFFFFFFFFFFFFFFFFFFFFFFFFFFFFFFFFF NOT AND DUP3 PUSH28 0xFFFFFFFFFFFFFFFFFFFFFFFFFFFFFFFFFFFFFFFFFFFFFFFFFFFFFFFF NOT AND EQ JUMPDEST SWAP1 POP SWAP2 SWAP1 POP JUMP JUMPDEST PUSH1 0x3 PUSH1 0x20 MSTORE DUP2 PUSH1 0x0 MSTORE PUSH1 0x40 PUSH1 0x0 KECCAK256 PUSH1 0x20 MSTORE DUP1 PUSH1 0x0 MSTORE PUSH1 0x40 PUSH1 0x0 KECCAK256 PUSH1 0x0 SWAP2 POP SWAP2 POP SWAP1 SLOAD SWAP1 PUSH2 0x100 EXP SWAP1 DIV PUSH1 0xFF AND DUP2 JUMP JUMPDEST PUSH1 0x0 SWAP2 SWAP1 POP JUMP JUMPDEST POP POP JUMP JUMPDEST PUSH1 0x60 PUSH2 0x4A4 DUP3 PUSH2 0x823 JUMP JUMPDEST SWAP1 POP SWAP2 SWAP1 POP JUMP JUMPDEST PUSH1 0x60 PUSH2 0x4B6 DUP3 PUSH2 0x670 JUMP JUMPDEST SWAP1 POP SWAP2 SWAP1 POP JUMP JUMPDEST PUSH1 0x0 PUSH20 0xFFFFFFFFFFFFFFFFFFFFFFFFFFFFFFFFFFFFFFFF AND DUP4 PUSH20 0xFFFFFFFFFFFFFFFFFFFFFFFFFFFFFFFFFFFFFFFF AND EQ PUSH2 0x52C JUMPI PUSH1 0x40 MLOAD PUSH32 0x8C379A000000000000000000000000000000000000000000000000000000000 DUP2 MSTORE PUSH1 0x4 ADD PUSH2 0x523 SWAP1 PUSH2 0x193C JUMP JUMPDEST PUSH1 0x40 MLOAD DUP1 SWAP2 SUB SWAP1 REVERT JUMPDEST POP POP POP JUMP JUMPDEST PUSH2 0x53C DUP4 DUP4 DUP4 PUSH2 0x4BD JUMP JUMPDEST PUSH1 0x0 DUP3 PUSH20 0xFFFFFFFFFFFFFFFFFFFFFFFFFFFFFFFFFFFFFFFF AND EXTCODESIZE EQ DUP1 PUSH2 0x625 JUMPI POP PUSH4 0x150B7A02 PUSH1 0xE0 SHL PUSH28 0xFFFFFFFFFFFFFFFFFFFFFFFFFFFFFFFFFFFFFFFFFFFFFFFFFFFFFFFF NOT AND DUP3 PUSH20 0xFFFFFFFFFFFFFFFFFFFFFFFFFFFFFFFFFFFFFFFF AND PUSH4 0x150B7A02 CALLER DUP7 DUP6 PUSH1 0x40 MLOAD DUP5 PUSH4 0xFFFFFFFF AND PUSH1 0xE0 SHL DUP2 MSTORE PUSH1 0x4 ADD PUSH2 0x5C1 SWAP4 SWAP3 SWAP2 SWAP1 PUSH2 0x1993 JUMP JUMPDEST PUSH1 0x20 PUSH1 0x40 MLOAD DUP1 DUP4 SUB DUP2 PUSH1 0x0 DUP8 GAS CALL ISZERO DUP1 ISZERO PUSH2 0x5E0 JUMPI RETURNDATASIZE PUSH1 0x0 DUP1 RETURNDATACOPY RETURNDATASIZE PUSH1 0x0 REVERT JUMPDEST POP POP POP POP PUSH1 0x40 MLOAD RETURNDATASIZE PUSH1 0x1F NOT PUSH1 0x1F DUP3 ADD AND DUP3 ADD DUP1 PUSH1 0x40 MSTORE POP DUP2 ADD SWAP1 PUSH2 0x604 SWAP2 SWAP1 PUSH2 0x19F2 JUMP JUMPDEST PUSH28 0xFFFFFFFFFFFFFFFFFFFFFFFFFFFFFFFFFFFFFFFFFFFFFFFFFFFFFFFF NOT AND EQ JUMPDEST PUSH2 0x664 JUMPI PUSH1 0x40 MLOAD PUSH32 0x8C379A000000000000000000000000000000000000000000000000000000000 DUP2 MSTORE PUSH1 0x4 ADD PUSH2 0x65B SWAP1 PUSH2 0x1A6B JUMP JUMPDEST PUSH1 0x40 MLOAD DUP1 SWAP2 SUB SWAP1 REVERT JUMPDEST POP POP POP JUMP JUMPDEST PUSH1 0x0 SWAP2 SWAP1 POP JUMP JUMPDEST PUSH1 0x60 PUSH1 0x0 PUSH1 0x3 PUSH8 0xFFFFFFFFFFFFFFFF DUP2 GT ISZERO PUSH2 0x68F JUMPI PUSH2 0x68E PUSH2 0x16D5 JUMP JUMPDEST JUMPDEST PUSH1 0x40 MLOAD SWAP1 DUP1 DUP3 MSTORE DUP1 PUSH1 0x20 MUL PUSH1 0x20 ADD DUP3 ADD PUSH1 0x40 MSTORE DUP1 ISZERO PUSH2 0x6BD JUMPI DUP2 PUSH1 0x20 ADD PUSH1 0x20 DUP3 MUL DUP1 CALLDATASIZE DUP4 CALLDATACOPY DUP1 DUP3 ADD SWAP2 POP POP SWAP1 POP JUMPDEST POP SWAP1 POP PUSH1 0x0 JUMPDEST PUSH1 0x3 DUP2 LT ISZERO PUSH2 0x762 JUMPI PUSH1 0x3 PUSH1 0x0 DUP6 PUSH20 0xFFFFFFFFFFFFFFFFFFFFFFFFFFFFFFFFFFFFFFFF AND PUSH20 0xFFFFFFFFFFFFFFFFFFFFFFFFFFFFFFFFFFFFFFFF AND DUP2 MSTORE PUSH1 0x20 ADD SWAP1 DUP2 MSTORE PUSH1 0x20 ADD PUSH1 0x0 KECCAK256 PUSH1 0x0 DUP3 DUP2 MSTORE PUSH1 0x20 ADD SWAP1 DUP2 MSTORE PUSH1 0x20 ADD PUSH1 0x0 KECCAK256 PUSH1 0x0 SWAP1 SLOAD SWAP1 PUSH2 0x100 EXP SWAP1 DIV PUSH1 0xFF AND DUP3 DUP3 DUP2 MLOAD DUP2 LT PUSH2 0x73D JUMPI PUSH2 0x73C PUSH2 0x1A8B JUMP JUMPDEST JUMPDEST PUSH1 0x20 MUL PUSH1 0x20 ADD ADD SWAP1 ISZERO ISZERO SWAP1 DUP2 ISZERO ISZERO DUP2 MSTORE POP POP DUP1 DUP1 PUSH2 0x75A SWAP1 PUSH2 0x1AE9 JUMP JUMPDEST SWAP2 POP POP PUSH2 0x6C3 JUMP JUMPDEST POP DUP1 SWAP2 POP POP SWAP2 SWAP1 POP JUMP JUMPDEST PUSH1 0x0 DUP1 PUSH20 0xFFFFFFFFFFFFFFFFFFFFFFFFFFFFFFFFFFFFFFFF AND DUP3 PUSH20 0xFFFFFFFFFFFFFFFFFFFFFFFFFFFFFFFFFFFFFFFF AND SUB PUSH2 0x7DC JUMPI PUSH1 0x40 MLOAD PUSH32 0x8C379A000000000000000000000000000000000000000000000000000000000 DUP2 MSTORE PUSH1 0x4 ADD PUSH2 0x7D3 SWAP1 PUSH2 0x1B7D JUMP JUMPDEST PUSH1 0x40 MLOAD DUP1 SWAP2 SUB SWAP1 REVERT JUMPDEST PUSH1 0x1 PUSH1 0x0 DUP4 PUSH20 0xFFFFFFFFFFFFFFFFFFFFFFFFFFFFFFFFFFFFFFFF AND PUSH20 0xFFFFFFFFFFFFFFFFFFFFFFFFFFFFFFFFFFFFFFFF AND DUP2 MSTORE PUSH1 0x20 ADD SWAP1 DUP2 MSTORE PUSH1 0x20 ADD PUSH1 0x0 KECCAK256 SLOAD SWAP1 POP SWAP2 SWAP1 POP JUMP JUMPDEST PUSH1 0x60 PUSH1 0x0 DUP1 DUP4 PUSH20 0xFFFFFFFFFFFFFFFFFFFFFFFFFFFFFFFFFFFFFFFF AND PUSH20 0xFFFFFFFFFFFFFFFFFFFFFFFFFFFFFFFFFFFFFFFF AND DUP2 MSTORE PUSH1 0x20 ADD SWAP1 DUP2 MSTORE PUSH1 0x20 ADD PUSH1 0x0 KECCAK256 DUP1 SLOAD DUP1 PUSH1 0x20 MUL PUSH1 0x20 ADD PUSH1 0x40 MLOAD SWAP1 DUP2 ADD PUSH1 0x40 MSTORE DUP1 SWAP3 SWAP2 SWAP1 DUP2 DUP2 MSTORE PUSH1 0x20 ADD PUSH1 0x0 SWAP1 JUMPDEST DUP3 DUP3 LT ISZERO PUSH2 0x9E3 JUMPI DUP4 DUP3 SWAP1 PUSH1 0x0 MSTORE PUSH1 0x20 PUSH1 0x0 KECCAK256 SWAP1 PUSH1 0x3 MUL ADD PUSH1 0x40 MLOAD DUP1 PUSH1 0x60 ADD PUSH1 0x40 MSTORE SWAP1 DUP2 PUSH1 0x0 DUP3 ADD SLOAD DUP2 MSTORE PUSH1 0x20 ADD PUSH1 0x1 DUP3 ADD DUP1 SLOAD PUSH2 0x8C0 SWAP1 PUSH2 0x1BCC JUMP JUMPDEST DUP1 PUSH1 0x1F ADD PUSH1 0x20 DUP1 SWAP2 DIV MUL PUSH1 0x20 ADD PUSH1 0x40 MLOAD SWAP1 DUP2 ADD PUSH1 0x40 MSTORE DUP1 SWAP3 SWAP2 SWAP1 DUP2 DUP2 MSTORE PUSH1 0x20 ADD DUP3 DUP1 SLOAD PUSH2 0x8EC SWAP1 PUSH2 0x1BCC JUMP JUMPDEST DUP1 ISZERO PUSH2 0x939 JUMPI DUP1 PUSH1 0x1F LT PUSH2 0x90E JUMPI PUSH2 0x100 DUP1 DUP4 SLOAD DIV MUL DUP4 MSTORE SWAP2 PUSH1 0x20 ADD SWAP2 PUSH2 0x939 JUMP JUMPDEST DUP3 ADD SWAP2 SWAP1 PUSH1 0x0 MSTORE PUSH1 0x20 PUSH1 0x0 KECCAK256 SWAP1 JUMPDEST DUP2 SLOAD DUP2 MSTORE SWAP1 PUSH1 0x1 ADD SWAP1 PUSH1 0x20 ADD DUP1 DUP4 GT PUSH2 0x91C JUMPI DUP3 SWAP1 SUB PUSH1 0x1F AND DUP3 ADD SWAP2 JUMPDEST POP POP POP POP POP DUP2 MSTORE PUSH1 0x20 ADD PUSH1 0x2 DUP3 ADD DUP1 SLOAD PUSH2 0x952 SWAP1 PUSH2 0x1BCC JUMP JUMPDEST DUP1 PUSH1 0x1F ADD PUSH1 0x20 DUP1 SWAP2 DIV MUL PUSH1 0x20 ADD PUSH1 0x40 MLOAD SWAP1 DUP2 ADD PUSH1 0x40 MSTORE DUP1 SWAP3 SWAP2 SWAP1 DUP2 DUP2 MSTORE PUSH1 0x20 ADD DUP3 DUP1 SLOAD PUSH2 0x97E SWAP1 PUSH2 0x1BCC JUMP JUMPDEST DUP1 ISZERO PUSH2 0x9CB JUMPI DUP1 PUSH1 0x1F LT PUSH2 0x9A0 JUMPI PUSH2 0x100 DUP1 DUP4 SLOAD DIV MUL DUP4 MSTORE SWAP2 PUSH1 0x20 ADD SWAP2 PUSH2 0x9CB JUMP JUMPDEST DUP3 ADD SWAP2 SWAP1 PUSH1 0x0 MSTORE PUSH1 0x20 PUSH1 0x0 KECCAK256 SWAP1 JUMPDEST DUP2 SLOAD DUP2 MSTORE SWAP1 PUSH1 0x1 ADD SWAP1 PUSH1 0x20 ADD DUP1 DUP4 GT PUSH2 0x9AE JUMPI DUP3 SWAP1 SUB PUSH1 0x1F AND DUP3 ADD SWAP2 JUMPDEST POP POP POP POP POP DUP2 MSTORE POP POP DUP2 MSTORE PUSH1 0x20 ADD SWAP1 PUSH1 0x1 ADD SWAP1 PUSH2 0x883 JUMP JUMPDEST POP POP POP POP SWAP1 POP SWAP2 SWAP1 POP JUMP JUMPDEST DUP1 PUSH1 0x4 PUSH1 0x0 CALLER PUSH20 0xFFFFFFFFFFFFFFFFFFFFFFFFFFFFFFFFFFFFFFFF AND PUSH20 0xFFFFFFFFFFFFFFFFFFFFFFFFFFFFFFFFFFFFFFFF AND DUP2 MSTORE PUSH1 0x20 ADD SWAP1 DUP2 MSTORE PUSH1 0x20 ADD PUSH1 0x0 KECCAK256 PUSH1 0x0 DUP5 PUSH20 0xFFFFFFFFFFFFFFFFFFFFFFFFFFFFFFFFFFFFFFFF AND PUSH20 0xFFFFFFFFFFFFFFFFFFFFFFFFFFFFFFFFFFFFFFFF AND DUP2 MSTORE PUSH1 0x20 ADD SWAP1 DUP2 MSTORE PUSH1 0x20 ADD PUSH1 0x0 KECCAK256 PUSH1 0x0 PUSH2 0x100 EXP DUP2 SLOAD DUP2 PUSH1 0xFF MUL NOT AND SWAP1 DUP4 ISZERO ISZERO MUL OR SWAP1 SSTORE POP DUP2 PUSH20 0xFFFFFFFFFFFFFFFFFFFFFFFFFFFFFFFFFFFFFFFF AND CALLER PUSH20 0xFFFFFFFFFFFFFFFFFFFFFFFFFFFFFFFFFFFFFFFF AND PUSH32 0x17307EAB39AB6107E8899845AD3D59BD9653F200F220920489CA2B5937696C31 DUP4 PUSH1 0x40 MLOAD PUSH2 0xADF SWAP2 SWAP1 PUSH2 0x10CD JUMP JUMPDEST PUSH1 0x40 MLOAD DUP1 SWAP2 SUB SWAP1 LOG3 POP POP JUMP JUMPDEST PUSH1 0x0 PUSH20 0xFFFFFFFFFFFFFFFFFFFFFFFFFFFFFFFFFFFFFFFF AND DUP6 PUSH20 0xFFFFFFFFFFFFFFFFFFFFFFFFFFFFFFFFFFFFFFFF AND EQ PUSH2 0xB5A JUMPI PUSH1 0x40 MLOAD PUSH32 0x8C379A000000000000000000000000000000000000000000000000000000000 DUP2 MSTORE PUSH1 0x4 ADD PUSH2 0xB51 SWAP1 PUSH2 0x193C JUMP JUMPDEST PUSH1 0x40 MLOAD DUP1 SWAP2 SUB SWAP1 REVERT JUMPDEST PUSH2 0xB65 DUP6 DUP6 DUP6 PUSH2 0x4BD JUMP JUMPDEST PUSH1 0x0 DUP5 PUSH20 0xFFFFFFFFFFFFFFFFFFFFFFFFFFFFFFFFFFFFFFFF AND EXTCODESIZE EQ DUP1 PUSH2 0xC52 JUMPI POP PUSH4 0x150B7A02 PUSH1 0xE0 SHL PUSH28 0xFFFFFFFFFFFFFFFFFFFFFFFFFFFFFFFFFFFFFFFFFFFFFFFFFFFFFFFF NOT AND DUP5 PUSH20 0xFFFFFFFFFFFFFFFFFFFFFFFFFFFFFFFFFFFFFFFF AND PUSH4 0x150B7A02 CALLER DUP9 DUP8 DUP8 DUP8 PUSH1 0x40 MLOAD DUP7 PUSH4 0xFFFFFFFF AND PUSH1 0xE0 SHL DUP2 MSTORE PUSH1 0x4 ADD PUSH2 0xBEE SWAP6 SWAP5 SWAP4 SWAP3 SWAP2 SWAP1 PUSH2 0x1C2A JUMP JUMPDEST PUSH1 0x20 PUSH1 0x40 MLOAD DUP1 DUP4 SUB DUP2 PUSH1 0x0 DUP8 GAS CALL ISZERO DUP1 ISZERO PUSH2 0xC0D JUMPI RETURNDATASIZE PUSH1 0x0 DUP1 RETURNDATACOPY RETURNDATASIZE PUSH1 0x0 REVERT JUMPDEST POP POP POP POP PUSH1 0x40 MLOAD RETURNDATASIZE PUSH1 0x1F NOT PUSH1 0x1F DUP3 ADD AND DUP3 ADD DUP1 PUSH1 0x40 MSTORE POP DUP2 ADD SWAP1 PUSH2 0xC31 SWAP2 SWAP1 PUSH2 0x19F2 JUMP JUMPDEST PUSH28 0xFFFFFFFFFFFFFFFFFFFFFFFFFFFFFFFFFFFFFFFFFFFFFFFFFFFFFFFF NOT AND EQ JUMPDEST PUSH2 0xC91 JUMPI PUSH1 0x40 MLOAD PUSH32 0x8C379A000000000000000000000000000000000000000000000000000000000 DUP2 MSTORE PUSH1 0x4 ADD PUSH2 0xC88 SWAP1 PUSH2 0x1A6B JUMP JUMPDEST PUSH1 0x40 MLOAD DUP1 SWAP2 SUB SWAP1 REVERT JUMPDEST POP POP POP POP POP JUMP JUMPDEST PUSH2 0xCA4 DUP5 DUP5 DUP5 DUP5 PUSH2 0xCD9 JUMP JUMPDEST POP POP POP POP JUMP JUMPDEST PUSH1 0x4 PUSH1 0x20 MSTORE DUP2 PUSH1 0x0 MSTORE PUSH1 0x40 PUSH1 0x0 KECCAK256 PUSH1 0x20 MSTORE DUP1 PUSH1 0x0 MSTORE PUSH1 0x40 PUSH1 0x0 KECCAK256 PUSH1 0x0 SWAP2 POP SWAP2 POP SWAP1 SLOAD SWAP1 PUSH2 0x100 EXP SWAP1 DIV PUSH1 0xFF AND DUP2 JUMP JUMPDEST PUSH1 0x3 DUP5 LT PUSH2 0xD1C JUMPI PUSH1 0x40 MLOAD PUSH32 0x8C379A000000000000000000000000000000000000000000000000000000000 DUP2 MSTORE PUSH1 0x4 ADD PUSH2 0xD13 SWAP1 PUSH2 0x1CC4 JUMP JUMPDEST PUSH1 0x40 MLOAD DUP1 SWAP2 SUB SWAP1 REVERT JUMPDEST PUSH1 0x0 PUSH20 0xFFFFFFFFFFFFFFFFFFFFFFFFFFFFFFFFFFFFFFFF AND DUP4 PUSH20 0xFFFFFFFFFFFFFFFFFFFFFFFFFFFFFFFFFFFFFFFF AND SUB PUSH2 0xD8B JUMPI PUSH1 0x40 MLOAD PUSH32 0x8C379A000000000000000000000000000000000000000000000000000000000 DUP2 MSTORE PUSH1 0x4 ADD PUSH2 0xD82 SWAP1 PUSH2 0x1D30 JUMP JUMPDEST PUSH1 0x40 MLOAD DUP1 SWAP2 SUB SWAP1 REVERT JUMPDEST PUSH1 0x1 ISZERO ISZERO PUSH1 0x3 PUSH1 0x0 CALLER PUSH20 0xFFFFFFFFFFFFFFFFFFFFFFFFFFFFFFFFFFFFFFFF AND PUSH20 0xFFFFFFFFFFFFFFFFFFFFFFFFFFFFFFFFFFFFFFFF AND DUP2 MSTORE PUSH1 0x20 ADD SWAP1 DUP2 MSTORE PUSH1 0x20 ADD PUSH1 0x0 KECCAK256 PUSH1 0x0 DUP7 DUP2 MSTORE PUSH1 0x20 ADD SWAP1 DUP2 MSTORE PUSH1 0x20 ADD PUSH1 0x0 KECCAK256 PUSH1 0x0 SWAP1 SLOAD SWAP1 PUSH2 0x100 EXP SWAP1 DIV PUSH1 0xFF AND ISZERO ISZERO SUB PUSH2 0xE2F JUMPI PUSH1 0x40 MLOAD PUSH32 0x8C379A000000000000000000000000000000000000000000000000000000000 DUP2 MSTORE PUSH1 0x4 ADD PUSH2 0xE26 SWAP1 PUSH2 0x1D9C JUMP JUMPDEST PUSH1 0x40 MLOAD DUP1 SWAP2 SUB SWAP1 REVERT JUMPDEST PUSH1 0x0 PUSH1 0x40 MLOAD DUP1 PUSH1 0x60 ADD PUSH1 0x40 MSTORE DUP1 DUP7 DUP2 MSTORE PUSH1 0x20 ADD DUP5 DUP2 MSTORE PUSH1 0x20 ADD DUP4 DUP2 MSTORE POP SWAP1 POP PUSH1 0x1 PUSH1 0x0 DUP6 PUSH20 0xFFFFFFFFFFFFFFFFFFFFFFFFFFFFFFFFFFFFFFFF AND PUSH20 0xFFFFFFFFFFFFFFFFFFFFFFFFFFFFFFFFFFFFFFFF AND DUP2 MSTORE PUSH1 0x20 ADD SWAP1 DUP2 MSTORE PUSH1 0x20 ADD PUSH1 0x0 KECCAK256 PUSH1 0x0 DUP2 SLOAD DUP1 SWAP3 SWAP2 SWAP1 PUSH2 0xE9E SWAP1 PUSH2 0x1AE9 JUMP JUMPDEST SWAP2 SWAP1 POP SSTORE POP PUSH1 0x0 DUP1 DUP6 PUSH20 0xFFFFFFFFFFFFFFFFFFFFFFFFFFFFFFFFFFFFFFFF AND PUSH20 0xFFFFFFFFFFFFFFFFFFFFFFFFFFFFFFFFFFFFFFFF AND DUP2 MSTORE PUSH1 0x20 ADD SWAP1 DUP2 MSTORE PUSH1 0x20 ADD PUSH1 0x0 KECCAK256 DUP2 SWAP1 DUP1 PUSH1 0x1 DUP2 SLOAD ADD DUP1 DUP3 SSTORE DUP1 SWAP2 POP POP PUSH1 0x1 SWAP1 SUB SWAP1 PUSH1 0x0 MSTORE PUSH1 0x20 PUSH1 0x0 KECCAK256 SWAP1 PUSH1 0x3 MUL ADD PUSH1 0x0 SWAP1 SWAP2 SWAP1 SWAP2 SWAP1 SWAP2 POP PUSH1 0x0 DUP3 ADD MLOAD DUP2 PUSH1 0x0 ADD SSTORE PUSH1 0x20 DUP3 ADD MLOAD DUP2 PUSH1 0x1 ADD SWAP1 DUP2 PUSH2 0xF2A SWAP2 SWAP1 PUSH2 0x1F68 JUMP JUMPDEST POP PUSH1 0x40 DUP3 ADD MLOAD DUP2 PUSH1 0x2 ADD SWAP1 DUP2 PUSH2 0xF40 SWAP2 SWAP1 PUSH2 0x1F68 JUMP JUMPDEST POP POP POP PUSH1 0x1 PUSH1 0x3 PUSH1 0x0 CALLER PUSH20 0xFFFFFFFFFFFFFFFFFFFFFFFFFFFFFFFFFFFFFFFF AND PUSH20 0xFFFFFFFFFFFFFFFFFFFFFFFFFFFFFFFFFFFFFFFF AND DUP2 MSTORE PUSH1 0x20 ADD SWAP1 DUP2 MSTORE PUSH1 0x20 ADD PUSH1 0x0 KECCAK256 PUSH1 0x0 DUP8 DUP2 MSTORE PUSH1 0x20 ADD SWAP1 DUP2 MSTORE PUSH1 0x20 ADD PUSH1 0x0 KECCAK256 PUSH1 0x0 PUSH2 0x100 EXP DUP2 SLOAD DUP2 PUSH1 0xFF MUL NOT AND SWAP1 DUP4 ISZERO ISZERO MUL OR SWAP1 SSTORE POP DUP4 PUSH20 0xFFFFFFFFFFFFFFFFFFFFFFFFFFFFFFFFFFFFFFFF AND PUSH1 0x0 PUSH20 0xFFFFFFFFFFFFFFFFFFFFFFFFFFFFFFFFFFFFFFFF AND PUSH32 0x4DA6A3240621D0CDFDABD4AA86427D9A0764E0FF7B9BC703CCF0505CEED78091 DUP4 PUSH1 0x40 MLOAD PUSH2 0x100A SWAP2 SWAP1 PUSH2 0x2091 JUMP JUMPDEST PUSH1 0x40 MLOAD DUP1 SWAP2 SUB SWAP1 LOG3 POP POP POP POP POP JUMP JUMPDEST PUSH1 0x0 PUSH1 0x40 MLOAD SWAP1 POP SWAP1 JUMP JUMPDEST PUSH1 0x0 DUP1 REVERT JUMPDEST PUSH1 0x0 DUP1 REVERT JUMPDEST PUSH1 0x0 PUSH32 0xFFFFFFFF00000000000000000000000000000000000000000000000000000000 DUP3 AND SWAP1 POP SWAP2 SWAP1 POP JUMP JUMPDEST PUSH2 0x1062 DUP2 PUSH2 0x102D JUMP JUMPDEST DUP2 EQ PUSH2 0x106D JUMPI PUSH1 0x0 DUP1 REVERT JUMPDEST POP JUMP JUMPDEST PUSH1 0x0 DUP2 CALLDATALOAD SWAP1 POP PUSH2 0x107F DUP2 PUSH2 0x1059 JUMP JUMPDEST SWAP3 SWAP2 POP POP JUMP JUMPDEST PUSH1 0x0 PUSH1 0x20 DUP3 DUP5 SUB SLT ISZERO PUSH2 0x109B JUMPI PUSH2 0x109A PUSH2 0x1023 JUMP JUMPDEST JUMPDEST PUSH1 0x0 PUSH2 0x10A9 DUP5 DUP3 DUP6 ADD PUSH2 0x1070 JUMP JUMPDEST SWAP2 POP POP SWAP3 SWAP2 POP POP JUMP JUMPDEST PUSH1 0x0 DUP2 ISZERO ISZERO SWAP1 POP SWAP2 SWAP1 POP JUMP JUMPDEST PUSH2 0x10C7 DUP2 PUSH2 0x10B2 JUMP JUMPDEST DUP3 MSTORE POP POP JUMP JUMPDEST PUSH1 0x0 PUSH1 0x20 DUP3 ADD SWAP1 POP PUSH2 0x10E2 PUSH1 0x0 DUP4 ADD DUP5 PUSH2 0x10BE JUMP JUMPDEST SWAP3 SWAP2 POP POP JUMP JUMPDEST PUSH1 0x0 PUSH20 0xFFFFFFFFFFFFFFFFFFFFFFFFFFFFFFFFFFFFFFFF DUP3 AND SWAP1 POP SWAP2 SWAP1 POP JUMP JUMPDEST PUSH1 0x0 PUSH2 0x1113 DUP3 PUSH2 0x10E8 JUMP JUMPDEST SWAP1 POP SWAP2 SWAP1 POP JUMP JUMPDEST PUSH2 0x1123 DUP2 PUSH2 0x1108 JUMP JUMPDEST DUP2 EQ PUSH2 0x112E JUMPI PUSH1 0x0 DUP1 REVERT JUMPDEST POP JUMP JUMPDEST PUSH1 0x0 DUP2 CALLDATALOAD SWAP1 POP PUSH2 0x1140 DUP2 PUSH2 0x111A JUMP JUMPDEST SWAP3 SWAP2 POP POP JUMP JUMPDEST PUSH1 0x0 DUP2 SWAP1 POP SWAP2 SWAP1 POP JUMP JUMPDEST PUSH2 0x1159 DUP2 PUSH2 0x1146 JUMP JUMPDEST DUP2 EQ PUSH2 0x1164 JUMPI PUSH1 0x0 DUP1 REVERT JUMPDEST POP JUMP JUMPDEST PUSH1 0x0 DUP2 CALLDATALOAD SWAP1 POP PUSH2 0x1176 DUP2 PUSH2 0x1150 JUMP JUMPDEST SWAP3 SWAP2 POP POP JUMP JUMPDEST PUSH1 0x0 DUP1 PUSH1 0x40 DUP4 DUP6 SUB SLT ISZERO PUSH2 0x1193 JUMPI PUSH2 0x1192 PUSH2 0x1023 JUMP JUMPDEST JUMPDEST PUSH1 0x0 PUSH2 0x11A1 DUP6 DUP3 DUP7 ADD PUSH2 0x1131 JUMP JUMPDEST SWAP3 POP POP PUSH1 0x20 PUSH2 0x11B2 DUP6 DUP3 DUP7 ADD PUSH2 0x1167 JUMP JUMPDEST SWAP2 POP POP SWAP3 POP SWAP3 SWAP1 POP JUMP JUMPDEST PUSH1 0x0 PUSH1 0x20 DUP3 DUP5 SUB SLT ISZERO PUSH2 0x11D2 JUMPI PUSH2 0x11D1 PUSH2 0x1023 JUMP JUMPDEST JUMPDEST PUSH1 0x0 PUSH2 0x11E0 DUP5 DUP3 DUP6 ADD PUSH2 0x1167 JUMP JUMPDEST SWAP2 POP POP SWAP3 SWAP2 POP POP JUMP JUMPDEST PUSH2 0x11F2 DUP2 PUSH2 0x1108 JUMP JUMPDEST DUP3 MSTORE POP POP JUMP JUMPDEST PUSH1 0x0 PUSH1 0x20 DUP3 ADD SWAP1 POP PUSH2 0x120D PUSH1 0x0 DUP4 ADD DUP5 PUSH2 0x11E9 JUMP JUMPDEST SWAP3 SWAP2 POP POP JUMP JUMPDEST PUSH1 0x0 PUSH1 0x20 DUP3 DUP5 SUB SLT ISZERO PUSH2 0x1229 JUMPI PUSH2 0x1228 PUSH2 0x1023 JUMP JUMPDEST JUMPDEST PUSH1 0x0 PUSH2 0x1237 DUP5 DUP3 DUP6 ADD PUSH2 0x1131 JUMP JUMPDEST SWAP2 POP POP SWAP3 SWAP2 POP POP JUMP JUMPDEST PUSH1 0x0 DUP2 MLOAD SWAP1 POP SWAP2 SWAP1 POP JUMP JUMPDEST PUSH1 0x0 DUP3 DUP3 MSTORE PUSH1 0x20 DUP3 ADD SWAP1 POP SWAP3 SWAP2 POP POP JUMP JUMPDEST PUSH1 0x0 DUP2 SWAP1 POP PUSH1 0x20 DUP3 ADD SWAP1 POP SWAP2 SWAP1 POP JUMP JUMPDEST PUSH2 0x1275 DUP2 PUSH2 0x1146 JUMP JUMPDEST DUP3 MSTORE POP POP JUMP JUMPDEST PUSH1 0x0 DUP2 MLOAD SWAP1 POP SWAP2 SWAP1 POP JUMP JUMPDEST PUSH1 0x0 DUP3 DUP3 MSTORE PUSH1 0x20 DUP3 ADD SWAP1 POP SWAP3 SWAP2 POP POP JUMP JUMPDEST PUSH1 0x0 JUMPDEST DUP4 DUP2 LT ISZERO PUSH2 0x12B5 JUMPI DUP1 DUP3 ADD MLOAD DUP2 DUP5 ADD MSTORE PUSH1 0x20 DUP2 ADD SWAP1 POP PUSH2 0x129A JUMP JUMPDEST PUSH1 0x0 DUP5 DUP5 ADD MSTORE POP POP POP POP JUMP JUMPDEST PUSH1 0x0 PUSH1 0x1F NOT PUSH1 0x1F DUP4 ADD AND SWAP1 POP SWAP2 SWAP1 POP JUMP JUMPDEST PUSH1 0x0 PUSH2 0x12DD DUP3 PUSH2 0x127B JUMP JUMPDEST PUSH2 0x12E7 DUP2 DUP6 PUSH2 0x1286 JUMP JUMPDEST SWAP4 POP PUSH2 0x12F7 DUP2 DUP6 PUSH1 0x20 DUP7 ADD PUSH2 0x1297 JUMP JUMPDEST PUSH2 0x1300 DUP2 PUSH2 0x12C1 JUMP JUMPDEST DUP5 ADD SWAP2 POP POP SWAP3 SWAP2 POP POP JUMP JUMPDEST PUSH1 0x0 PUSH1 0x60 DUP4 ADD PUSH1 0x0 DUP4 ADD MLOAD PUSH2 0x1323 PUSH1 0x0 DUP7 ADD DUP3 PUSH2 0x126C JUMP JUMPDEST POP PUSH1 0x20 DUP4 ADD MLOAD DUP5 DUP3 SUB PUSH1 0x20 DUP7 ADD MSTORE PUSH2 0x133B DUP3 DUP3 PUSH2 0x12D2 JUMP JUMPDEST SWAP2 POP POP PUSH1 0x40 DUP4 ADD MLOAD DUP5 DUP3 SUB PUSH1 0x40 DUP7 ADD MSTORE PUSH2 0x1355 DUP3 DUP3 PUSH2 0x12D2 JUMP JUMPDEST SWAP2 POP POP DUP1 SWAP2 POP POP SWAP3 SWAP2 POP POP JUMP JUMPDEST PUSH1 0x0 PUSH2 0x136E DUP4 DUP4 PUSH2 0x130B JUMP JUMPDEST SWAP1 POP SWAP3 SWAP2 POP POP JUMP JUMPDEST PUSH1 0x0 PUSH1 0x20 DUP3 ADD SWAP1 POP SWAP2 SWAP1 POP JUMP JUMPDEST PUSH1 0x0 PUSH2 0x138E DUP3 PUSH2 0x1240 JUMP JUMPDEST PUSH2 0x1398 DUP2 DUP6 PUSH2 0x124B JUMP JUMPDEST SWAP4 POP DUP4 PUSH1 0x20 DUP3 MUL DUP6 ADD PUSH2 0x13AA DUP6 PUSH2 0x125C JUMP JUMPDEST DUP1 PUSH1 0x0 JUMPDEST DUP6 DUP2 LT ISZERO PUSH2 0x13E6 JUMPI DUP5 DUP5 SUB DUP10 MSTORE DUP2 MLOAD PUSH2 0x13C7 DUP6 DUP3 PUSH2 0x1362 JUMP JUMPDEST SWAP5 POP PUSH2 0x13D2 DUP4 PUSH2 0x1376 JUMP JUMPDEST SWAP3 POP PUSH1 0x20 DUP11 ADD SWAP10 POP POP PUSH1 0x1 DUP2 ADD SWAP1 POP PUSH2 0x13AE JUMP JUMPDEST POP DUP3 SWAP8 POP DUP8 SWAP6 POP POP POP POP POP POP SWAP3 SWAP2 POP POP JUMP JUMPDEST PUSH1 0x0 PUSH1 0x20 DUP3 ADD SWAP1 POP DUP2 DUP2 SUB PUSH1 0x0 DUP4 ADD MSTORE PUSH2 0x1412 DUP2 DUP5 PUSH2 0x1383 JUMP JUMPDEST SWAP1 POP SWAP3 SWAP2 POP POP JUMP JUMPDEST PUSH1 0x0 DUP2 MLOAD SWAP1 POP SWAP2 SWAP1 POP JUMP JUMPDEST PUSH1 0x0 DUP3 DUP3 MSTORE PUSH1 0x20 DUP3 ADD SWAP1 POP SWAP3 SWAP2 POP POP JUMP JUMPDEST PUSH1 0x0 DUP2 SWAP1 POP PUSH1 0x20 DUP3 ADD SWAP1 POP SWAP2 SWAP1 POP JUMP JUMPDEST PUSH2 0x144F DUP2 PUSH2 0x10B2 JUMP JUMPDEST DUP3 MSTORE POP POP JUMP JUMPDEST PUSH1 0x0 PUSH2 0x1461 DUP4 DUP4 PUSH2 0x1446 JUMP JUMPDEST PUSH1 0x20 DUP4 ADD SWAP1 POP SWAP3 SWAP2 POP POP JUMP JUMPDEST PUSH1 0x0 PUSH1 0x20 DUP3 ADD SWAP1 POP SWAP2 SWAP1 POP JUMP JUMPDEST PUSH1 0x0 PUSH2 0x1485 DUP3 PUSH2 0x141A JUMP JUMPDEST PUSH2 0x148F DUP2 DUP6 PUSH2 0x1425 JUMP JUMPDEST SWAP4 POP PUSH2 0x149A DUP4 PUSH2 0x1436 JUMP JUMPDEST DUP1 PUSH1 0x0 JUMPDEST DUP4 DUP2 LT ISZERO PUSH2 0x14CB JUMPI DUP2 MLOAD PUSH2 0x14B2 DUP9 DUP3 PUSH2 0x1455 JUMP JUMPDEST SWAP8 POP PUSH2 0x14BD DUP4 PUSH2 0x146D JUMP JUMPDEST SWAP3 POP POP PUSH1 0x1 DUP2 ADD SWAP1 POP PUSH2 0x149E JUMP JUMPDEST POP DUP6 SWAP4 POP POP POP POP SWAP3 SWAP2 POP POP JUMP JUMPDEST PUSH1 0x0 PUSH1 0x20 DUP3 ADD SWAP1 POP DUP2 DUP2 SUB PUSH1 0x0 DUP4 ADD MSTORE PUSH2 0x14F2 DUP2 DUP5 PUSH2 0x147A JUMP JUMPDEST SWAP1 POP SWAP3 SWAP2 POP POP JUMP JUMPDEST PUSH1 0x0 DUP1 PUSH1 0x0 PUSH1 0x60 DUP5 DUP7 SUB SLT ISZERO PUSH2 0x1513 JUMPI PUSH2 0x1512 PUSH2 0x1023 JUMP JUMPDEST JUMPDEST PUSH1 0x0 PUSH2 0x1521 DUP7 DUP3 DUP8 ADD PUSH2 0x1131 JUMP JUMPDEST SWAP4 POP POP PUSH1 0x20 PUSH2 0x1532 DUP7 DUP3 DUP8 ADD PUSH2 0x1131 JUMP JUMPDEST SWAP3 POP POP PUSH1 0x40 PUSH2 0x1543 DUP7 DUP3 DUP8 ADD PUSH2 0x1167 JUMP JUMPDEST SWAP2 POP POP SWAP3 POP SWAP3 POP SWAP3 JUMP JUMPDEST PUSH2 0x1556 DUP2 PUSH2 0x1146 JUMP JUMPDEST DUP3 MSTORE POP POP JUMP JUMPDEST PUSH1 0x0 PUSH1 0x20 DUP3 ADD SWAP1 POP PUSH2 0x1571 PUSH1 0x0 DUP4 ADD DUP5 PUSH2 0x154D JUMP JUMPDEST SWAP3 SWAP2 POP POP JUMP JUMPDEST PUSH2 0x1580 DUP2 PUSH2 0x10B2 JUMP JUMPDEST DUP2 EQ PUSH2 0x158B JUMPI PUSH1 0x0 DUP1 REVERT JUMPDEST POP JUMP JUMPDEST PUSH1 0x0 DUP2 CALLDATALOAD SWAP1 POP PUSH2 0x159D DUP2 PUSH2 0x1577 JUMP JUMPDEST SWAP3 SWAP2 POP POP JUMP JUMPDEST PUSH1 0x0 DUP1 PUSH1 0x40 DUP4 DUP6 SUB SLT ISZERO PUSH2 0x15BA JUMPI PUSH2 0x15B9 PUSH2 0x1023 JUMP JUMPDEST JUMPDEST PUSH1 0x0 PUSH2 0x15C8 DUP6 DUP3 DUP7 ADD PUSH2 0x1131 JUMP JUMPDEST SWAP3 POP POP PUSH1 0x20 PUSH2 0x15D9 DUP6 DUP3 DUP7 ADD PUSH2 0x158E JUMP JUMPDEST SWAP2 POP POP SWAP3 POP SWAP3 SWAP1 POP JUMP JUMPDEST PUSH1 0x0 DUP1 REVERT JUMPDEST PUSH1 0x0 DUP1 REVERT JUMPDEST PUSH1 0x0 DUP1 REVERT JUMPDEST PUSH1 0x0 DUP1 DUP4 PUSH1 0x1F DUP5 ADD SLT PUSH2 0x1608 JUMPI PUSH2 0x1607 PUSH2 0x15E3 JUMP JUMPDEST JUMPDEST DUP3 CALLDATALOAD SWAP1 POP PUSH8 0xFFFFFFFFFFFFFFFF DUP2 GT ISZERO PUSH2 0x1625 JUMPI PUSH2 0x1624 PUSH2 0x15E8 JUMP JUMPDEST JUMPDEST PUSH1 0x20 DUP4 ADD SWAP2 POP DUP4 PUSH1 0x1 DUP3 MUL DUP4 ADD GT ISZERO PUSH2 0x1641 JUMPI PUSH2 0x1640 PUSH2 0x15ED JUMP JUMPDEST JUMPDEST SWAP3 POP SWAP3 SWAP1 POP JUMP JUMPDEST PUSH1 0x0 DUP1 PUSH1 0x0 DUP1 PUSH1 0x0 PUSH1 0x80 DUP7 DUP9 SUB SLT ISZERO PUSH2 0x1664 JUMPI PUSH2 0x1663 PUSH2 0x1023 JUMP JUMPDEST JUMPDEST PUSH1 0x0 PUSH2 0x1672 DUP9 DUP3 DUP10 ADD PUSH2 0x1131 JUMP JUMPDEST SWAP6 POP POP PUSH1 0x20 PUSH2 0x1683 DUP9 DUP3 DUP10 ADD PUSH2 0x1131 JUMP JUMPDEST SWAP5 POP POP PUSH1 0x40 PUSH2 0x1694 DUP9 DUP3 DUP10 ADD PUSH2 0x1167 JUMP JUMPDEST SWAP4 POP POP PUSH1 0x60 DUP7 ADD CALLDATALOAD PUSH8 0xFFFFFFFFFFFFFFFF DUP2 GT ISZERO PUSH2 0x16B5 JUMPI PUSH2 0x16B4 PUSH2 0x1028 JUMP JUMPDEST JUMPDEST PUSH2 0x16C1 DUP9 DUP3 DUP10 ADD PUSH2 0x15F2 JUMP JUMPDEST SWAP3 POP SWAP3 POP POP SWAP3 SWAP6 POP SWAP3 SWAP6 SWAP1 SWAP4 POP JUMP JUMPDEST PUSH1 0x0 DUP1 REVERT JUMPDEST PUSH32 0x4E487B7100000000000000000000000000000000000000000000000000000000 PUSH1 0x0 MSTORE PUSH1 0x41 PUSH1 0x4 MSTORE PUSH1 0x24 PUSH1 0x0 REVERT JUMPDEST PUSH2 0x170D DUP3 PUSH2 0x12C1 JUMP JUMPDEST DUP2 ADD DUP2 DUP2 LT PUSH8 0xFFFFFFFFFFFFFFFF DUP3 GT OR ISZERO PUSH2 0x172C JUMPI PUSH2 0x172B PUSH2 0x16D5 JUMP JUMPDEST JUMPDEST DUP1 PUSH1 0x40 MSTORE POP POP POP JUMP JUMPDEST PUSH1 0x0 PUSH2 0x173F PUSH2 0x1019 JUMP JUMPDEST SWAP1 POP PUSH2 0x174B DUP3 DUP3 PUSH2 0x1704 JUMP JUMPDEST SWAP2 SWAP1 POP JUMP JUMPDEST PUSH1 0x0 PUSH8 0xFFFFFFFFFFFFFFFF DUP3 GT ISZERO PUSH2 0x176B JUMPI PUSH2 0x176A PUSH2 0x16D5 JUMP JUMPDEST JUMPDEST PUSH2 0x1774 DUP3 PUSH2 0x12C1 JUMP JUMPDEST SWAP1 POP PUSH1 0x20 DUP2 ADD SWAP1 POP SWAP2 SWAP1 POP JUMP JUMPDEST DUP3 DUP2 DUP4 CALLDATACOPY PUSH1 0x0 DUP4 DUP4 ADD MSTORE POP POP POP JUMP JUMPDEST PUSH1 0x0 PUSH2 0x17A3 PUSH2 0x179E DUP5 PUSH2 0x1750 JUMP JUMPDEST PUSH2 0x1735 JUMP JUMPDEST SWAP1 POP DUP3 DUP2 MSTORE PUSH1 0x20 DUP2 ADD DUP5 DUP5 DUP5 ADD GT ISZERO PUSH2 0x17BF JUMPI PUSH2 0x17BE PUSH2 0x16D0 JUMP JUMPDEST JUMPDEST PUSH2 0x17CA DUP5 DUP3 DUP6 PUSH2 0x1781 JUMP JUMPDEST POP SWAP4 SWAP3 POP POP POP JUMP JUMPDEST PUSH1 0x0 DUP3 PUSH1 0x1F DUP4 ADD SLT PUSH2 0x17E7 JUMPI PUSH2 0x17E6 PUSH2 0x15E3 JUMP JUMPDEST JUMPDEST DUP2 CALLDATALOAD PUSH2 0x17F7 DUP5 DUP3 PUSH1 0x20 DUP7 ADD PUSH2 0x1790 JUMP JUMPDEST SWAP2 POP POP SWAP3 SWAP2 POP POP JUMP JUMPDEST PUSH1 0x0 DUP1 PUSH1 0x0 DUP1 PUSH1 0x80 DUP6 DUP8 SUB SLT ISZERO PUSH2 0x181A JUMPI PUSH2 0x1819 PUSH2 0x1023 JUMP JUMPDEST JUMPDEST PUSH1 0x0 PUSH2 0x1828 DUP8 DUP3 DUP9 ADD PUSH2 0x1167 JUMP JUMPDEST SWAP5 POP POP PUSH1 0x20 PUSH2 0x1839 DUP8 DUP3 DUP9 ADD PUSH2 0x1131 JUMP JUMPDEST SWAP4 POP POP PUSH1 0x40 DUP6 ADD CALLDATALOAD PUSH8 0xFFFFFFFFFFFFFFFF DUP2 GT ISZERO PUSH2 0x185A JUMPI PUSH2 0x1859 PUSH2 0x1028 JUMP JUMPDEST JUMPDEST PUSH2 0x1866 DUP8 DUP3 DUP9 ADD PUSH2 0x17D2 JUMP JUMPDEST SWAP3 POP POP PUSH1 0x60 DUP6 ADD CALLDATALOAD PUSH8 0xFFFFFFFFFFFFFFFF DUP2 GT ISZERO PUSH2 0x1887 JUMPI PUSH2 0x1886 PUSH2 0x1028 JUMP JUMPDEST JUMPDEST PUSH2 0x1893 DUP8 DUP3 DUP9 ADD PUSH2 0x17D2 JUMP JUMPDEST SWAP2 POP POP SWAP3 SWAP6 SWAP2 SWAP5 POP SWAP3 POP JUMP JUMPDEST PUSH1 0x0 DUP1 PUSH1 0x40 DUP4 DUP6 SUB SLT ISZERO PUSH2 0x18B6 JUMPI PUSH2 0x18B5 PUSH2 0x1023 JUMP JUMPDEST JUMPDEST PUSH1 0x0 PUSH2 0x18C4 DUP6 DUP3 DUP7 ADD PUSH2 0x1131 JUMP JUMPDEST SWAP3 POP POP PUSH1 0x20 PUSH2 0x18D5 DUP6 DUP3 DUP7 ADD PUSH2 0x1131 JUMP JUMPDEST SWAP2 POP POP SWAP3 POP SWAP3 SWAP1 POP JUMP JUMPDEST PUSH1 0x0 DUP3 DUP3 MSTORE PUSH1 0x20 DUP3 ADD SWAP1 POP SWAP3 SWAP2 POP POP JUMP JUMPDEST PUSH32 0x5342540000000000000000000000000000000000000000000000000000000000 PUSH1 0x0 DUP3 ADD MSTORE POP JUMP JUMPDEST PUSH1 0x0 PUSH2 0x1926 PUSH1 0x3 DUP4 PUSH2 0x18DF JUMP JUMPDEST SWAP2 POP PUSH2 0x1931 DUP3 PUSH2 0x18F0 JUMP JUMPDEST PUSH1 0x20 DUP3 ADD SWAP1 POP SWAP2 SWAP1 POP JUMP JUMPDEST PUSH1 0x0 PUSH1 0x20 DUP3 ADD SWAP1 POP DUP2 DUP2 SUB PUSH1 0x0 DUP4 ADD MSTORE PUSH2 0x1955 DUP2 PUSH2 0x1919 JUMP JUMPDEST SWAP1 POP SWAP2 SWAP1 POP JUMP JUMPDEST PUSH1 0x0 DUP3 DUP3 MSTORE PUSH1 0x20 DUP3 ADD SWAP1 POP SWAP3 SWAP2 POP POP JUMP JUMPDEST POP JUMP JUMPDEST PUSH1 0x0 PUSH2 0x197D PUSH1 0x0 DUP4 PUSH2 0x195C JUMP JUMPDEST SWAP2 POP PUSH2 0x1988 DUP3 PUSH2 0x196D JUMP JUMPDEST PUSH1 0x0 DUP3 ADD SWAP1 POP SWAP2 SWAP1 POP JUMP JUMPDEST PUSH1 0x0 PUSH1 0x80 DUP3 ADD SWAP1 POP PUSH2 0x19A8 PUSH1 0x0 DUP4 ADD DUP7 PUSH2 0x11E9 JUMP JUMPDEST PUSH2 0x19B5 PUSH1 0x20 DUP4 ADD DUP6 PUSH2 0x11E9 JUMP JUMPDEST PUSH2 0x19C2 PUSH1 0x40 DUP4 ADD DUP5 PUSH2 0x154D JUMP JUMPDEST DUP2 DUP2 SUB PUSH1 0x60 DUP4 ADD MSTORE PUSH2 0x19D3 DUP2 PUSH2 0x1970 JUMP JUMPDEST SWAP1 POP SWAP5 SWAP4 POP POP POP POP JUMP JUMPDEST PUSH1 0x0 DUP2 MLOAD SWAP1 POP PUSH2 0x19EC DUP2 PUSH2 0x1059 JUMP JUMPDEST SWAP3 SWAP2 POP POP JUMP JUMPDEST PUSH1 0x0 PUSH1 0x20 DUP3 DUP5 SUB SLT ISZERO PUSH2 0x1A08 JUMPI PUSH2 0x1A07 PUSH2 0x1023 JUMP JUMPDEST JUMPDEST PUSH1 0x0 PUSH2 0x1A16 DUP5 DUP3 DUP6 ADD PUSH2 0x19DD JUMP JUMPDEST SWAP2 POP POP SWAP3 SWAP2 POP POP JUMP JUMPDEST PUSH32 0x756E7361666520726563697069656E7400000000000000000000000000000000 PUSH1 0x0 DUP3 ADD MSTORE POP JUMP JUMPDEST PUSH1 0x0 PUSH2 0x1A55 PUSH1 0x10 DUP4 PUSH2 0x18DF JUMP JUMPDEST SWAP2 POP PUSH2 0x1A60 DUP3 PUSH2 0x1A1F JUMP JUMPDEST PUSH1 0x20 DUP3 ADD SWAP1 POP SWAP2 SWAP1 POP JUMP JUMPDEST PUSH1 0x0 PUSH1 0x20 DUP3 ADD SWAP1 POP DUP2 DUP2 SUB PUSH1 0x0 DUP4 ADD MSTORE PUSH2 0x1A84 DUP2 PUSH2 0x1A48 JUMP JUMPDEST SWAP1 POP SWAP2 SWAP1 POP JUMP JUMPDEST PUSH32 0x4E487B7100000000000000000000000000000000000000000000000000000000 PUSH1 0x0 MSTORE PUSH1 0x32 PUSH1 0x4 MSTORE PUSH1 0x24 PUSH1 0x0 REVERT JUMPDEST PUSH32 0x4E487B7100000000000000000000000000000000000000000000000000000000 PUSH1 0x0 MSTORE PUSH1 0x11 PUSH1 0x4 MSTORE PUSH1 0x24 PUSH1 0x0 REVERT JUMPDEST PUSH1 0x0 PUSH2 0x1AF4 DUP3 PUSH2 0x1146 JUMP JUMPDEST SWAP2 POP PUSH32 0xFFFFFFFFFFFFFFFFFFFFFFFFFFFFFFFFFFFFFFFFFFFFFFFFFFFFFFFFFFFFFFFF DUP3 SUB PUSH2 0x1B26 JUMPI PUSH2 0x1B25 PUSH2 0x1ABA JUMP JUMPDEST JUMPDEST PUSH1 0x1 DUP3 ADD SWAP1 POP SWAP2 SWAP1 POP JUMP JUMPDEST PUSH32 0x6F776E6572203D207A65726F2061646472657373000000000000000000000000 PUSH1 0x0 DUP3 ADD MSTORE POP JUMP JUMPDEST PUSH1 0x0 PUSH2 0x1B67 PUSH1 0x14 DUP4 PUSH2 0x18DF JUMP JUMPDEST SWAP2 POP PUSH2 0x1B72 DUP3 PUSH2 0x1B31 JUMP JUMPDEST PUSH1 0x20 DUP3 ADD SWAP1 POP SWAP2 SWAP1 POP JUMP JUMPDEST PUSH1 0x0 PUSH1 0x20 DUP3 ADD SWAP1 POP DUP2 DUP2 SUB PUSH1 0x0 DUP4 ADD MSTORE PUSH2 0x1B96 DUP2 PUSH2 0x1B5A JUMP JUMPDEST SWAP1 POP SWAP2 SWAP1 POP JUMP JUMPDEST PUSH32 0x4E487B7100000000000000000000000000000000000000000000000000000000 PUSH1 0x0 MSTORE PUSH1 0x22 PUSH1 0x4 MSTORE PUSH1 0x24 PUSH1 0x0 REVERT JUMPDEST PUSH1 0x0 PUSH1 0x2 DUP3 DIV SWAP1 POP PUSH1 0x1 DUP3 AND DUP1 PUSH2 0x1BE4 JUMPI PUSH1 0x7F DUP3 AND SWAP2 POP JUMPDEST PUSH1 0x20 DUP3 LT DUP2 SUB PUSH2 0x1BF7 JUMPI PUSH2 0x1BF6 PUSH2 0x1B9D JUMP JUMPDEST JUMPDEST POP SWAP2 SWAP1 POP JUMP JUMPDEST PUSH1 0x0 PUSH2 0x1C09 DUP4 DUP6 PUSH2 0x195C JUMP JUMPDEST SWAP4 POP PUSH2 0x1C16 DUP4 DUP6 DUP5 PUSH2 0x1781 JUMP JUMPDEST PUSH2 0x1C1F DUP4 PUSH2 0x12C1 JUMP JUMPDEST DUP5 ADD SWAP1 POP SWAP4 SWAP3 POP POP POP JUMP JUMPDEST PUSH1 0x0 PUSH1 0x80 DUP3 ADD SWAP1 POP PUSH2 0x1C3F PUSH1 0x0 DUP4 ADD DUP9 PUSH2 0x11E9 JUMP JUMPDEST PUSH2 0x1C4C PUSH1 0x20 DUP4 ADD DUP8 PUSH2 0x11E9 JUMP JUMPDEST PUSH2 0x1C59 PUSH1 0x40 DUP4 ADD DUP7 PUSH2 0x154D JUMP JUMPDEST DUP2 DUP2 SUB PUSH1 0x60 DUP4 ADD MSTORE PUSH2 0x1C6C DUP2 DUP5 DUP7 PUSH2 0x1BFD JUMP JUMPDEST SWAP1 POP SWAP7 SWAP6 POP POP POP POP POP POP JUMP JUMPDEST PUSH32 0x4944203D3D206F6E6C7920302C312C3220000000000000000000000000000000 PUSH1 0x0 DUP3 ADD MSTORE POP JUMP JUMPDEST PUSH1 0x0 PUSH2 0x1CAE PUSH1 0x11 DUP4 PUSH2 0x18DF JUMP JUMPDEST SWAP2 POP PUSH2 0x1CB9 DUP3 PUSH2 0x1C78 JUMP JUMPDEST PUSH1 0x20 DUP3 ADD SWAP1 POP SWAP2 SWAP1 POP JUMP JUMPDEST PUSH1 0x0 PUSH1 0x20 DUP3 ADD SWAP1 POP DUP2 DUP2 SUB PUSH1 0x0 DUP4 ADD MSTORE PUSH2 0x1CDD DUP2 PUSH2 0x1CA1 JUMP JUMPDEST SWAP1 POP SWAP2 SWAP1 POP JUMP JUMPDEST PUSH32 0x6D696E7420746F207A65726F2061646472657373000000000000000000000000 PUSH1 0x0 DUP3 ADD MSTORE POP JUMP JUMPDEST PUSH1 0x0 PUSH2 0x1D1A PUSH1 0x14 DUP4 PUSH2 0x18DF JUMP JUMPDEST SWAP2 POP PUSH2 0x1D25 DUP3 PUSH2 0x1CE4 JUMP JUMPDEST PUSH1 0x20 DUP3 ADD SWAP1 POP SWAP2 SWAP1 POP JUMP JUMPDEST PUSH1 0x0 PUSH1 0x20 DUP3 ADD SWAP1 POP DUP2 DUP2 SUB PUSH1 0x0 DUP4 ADD MSTORE PUSH2 0x1D49 DUP2 PUSH2 0x1D0D JUMP JUMPDEST SWAP1 POP SWAP2 SWAP1 POP JUMP JUMPDEST PUSH32 0x416C7265616479204D696E746564000000000000000000000000000000000000 PUSH1 0x0 DUP3 ADD MSTORE POP JUMP JUMPDEST PUSH1 0x0 PUSH2 0x1D86 PUSH1 0xE DUP4 PUSH2 0x18DF JUMP JUMPDEST SWAP2 POP PUSH2 0x1D91 DUP3 PUSH2 0x1D50 JUMP JUMPDEST PUSH1 0x20 DUP3 ADD SWAP1 POP SWAP2 SWAP1 POP JUMP JUMPDEST PUSH1 0x0 PUSH1 0x20 DUP3 ADD SWAP1 POP DUP2 DUP2 SUB PUSH1 0x0 DUP4 ADD MSTORE PUSH2 0x1DB5 DUP2 PUSH2 0x1D79 JUMP JUMPDEST SWAP1 POP SWAP2 SWAP1 POP JUMP JUMPDEST PUSH1 0x0 DUP2 SWAP1 POP DUP2 PUSH1 0x0 MSTORE PUSH1 0x20 PUSH1 0x0 KECCAK256 SWAP1 POP SWAP2 SWAP1 POP JUMP JUMPDEST PUSH1 0x0 PUSH1 0x20 PUSH1 0x1F DUP4 ADD DIV SWAP1 POP SWAP2 SWAP1 POP JUMP JUMPDEST PUSH1 0x0 DUP3 DUP3 SHL SWAP1 POP SWAP3 SWAP2 POP POP JUMP JUMPDEST PUSH1 0x0 PUSH1 0x8 DUP4 MUL PUSH2 0x1E1E PUSH32 0xFFFFFFFFFFFFFFFFFFFFFFFFFFFFFFFFFFFFFFFFFFFFFFFFFFFFFFFFFFFFFFFF DUP3 PUSH2 0x1DE1 JUMP JUMPDEST PUSH2 0x1E28 DUP7 DUP4 PUSH2 0x1DE1 JUMP JUMPDEST SWAP6 POP DUP1 NOT DUP5 AND SWAP4 POP DUP1 DUP7 AND DUP5 OR SWAP3 POP POP POP SWAP4 SWAP3 POP POP POP JUMP JUMPDEST PUSH1 0x0 DUP2 SWAP1 POP SWAP2 SWAP1 POP JUMP JUMPDEST PUSH1 0x0 PUSH2 0x1E65 PUSH2 0x1E60 PUSH2 0x1E5B DUP5 PUSH2 0x1146 JUMP JUMPDEST PUSH2 0x1E40 JUMP JUMPDEST PUSH2 0x1146 JUMP JUMPDEST SWAP1 POP SWAP2 SWAP1 POP JUMP JUMPDEST PUSH1 0x0 DUP2 SWAP1 POP SWAP2 SWAP1 POP JUMP JUMPDEST PUSH2 0x1E7F DUP4 PUSH2 0x1E4A JUMP JUMPDEST PUSH2 0x1E93 PUSH2 0x1E8B DUP3 PUSH2 0x1E6C JUMP JUMPDEST DUP5 DUP5 SLOAD PUSH2 0x1DEE JUMP JUMPDEST DUP3 SSTORE POP POP POP POP JUMP JUMPDEST PUSH1 0x0 SWAP1 JUMP JUMPDEST PUSH2 0x1EA8 PUSH2 0x1E9B JUMP JUMPDEST PUSH2 0x1EB3 DUP2 DUP5 DUP5 PUSH2 0x1E76 JUMP JUMPDEST POP POP POP JUMP JUMPDEST JUMPDEST DUP2 DUP2 LT ISZERO PUSH2 0x1ED7 JUMPI PUSH2 0x1ECC PUSH1 0x0 DUP3 PUSH2 0x1EA0 JUMP JUMPDEST PUSH1 0x1 DUP2 ADD SWAP1 POP PUSH2 0x1EB9 JUMP JUMPDEST POP POP JUMP JUMPDEST PUSH1 0x1F DUP3 GT ISZERO PUSH2 0x1F1C JUMPI PUSH2 0x1EED DUP2 PUSH2 0x1DBC JUMP JUMPDEST PUSH2 0x1EF6 DUP5 PUSH2 0x1DD1 JUMP JUMPDEST DUP2 ADD PUSH1 0x20 DUP6 LT ISZERO PUSH2 0x1F05 JUMPI DUP2 SWAP1 POP JUMPDEST PUSH2 0x1F19 PUSH2 0x1F11 DUP6 PUSH2 0x1DD1 JUMP JUMPDEST DUP4 ADD DUP3 PUSH2 0x1EB8 JUMP JUMPDEST POP POP JUMPDEST POP POP POP JUMP JUMPDEST PUSH1 0x0 DUP3 DUP3 SHR SWAP1 POP SWAP3 SWAP2 POP POP JUMP JUMPDEST PUSH1 0x0 PUSH2 0x1F3F PUSH1 0x0 NOT DUP5 PUSH1 0x8 MUL PUSH2 0x1F21 JUMP JUMPDEST NOT DUP1 DUP4 AND SWAP2 POP POP SWAP3 SWAP2 POP POP JUMP JUMPDEST PUSH1 0x0 PUSH2 0x1F58 DUP4 DUP4 PUSH2 0x1F2E JUMP JUMPDEST SWAP2 POP DUP3 PUSH1 0x2 MUL DUP3 OR SWAP1 POP SWAP3 SWAP2 POP POP JUMP JUMPDEST PUSH2 0x1F71 DUP3 PUSH2 0x127B JUMP JUMPDEST PUSH8 0xFFFFFFFFFFFFFFFF DUP2 GT ISZERO PUSH2 0x1F8A JUMPI PUSH2 0x1F89 PUSH2 0x16D5 JUMP JUMPDEST JUMPDEST PUSH2 0x1F94 DUP3 SLOAD PUSH2 0x1BCC JUMP JUMPDEST PUSH2 0x1F9F DUP3 DUP3 DUP6 PUSH2 0x1EDB JUMP JUMPDEST PUSH1 0x0 PUSH1 0x20 SWAP1 POP PUSH1 0x1F DUP4 GT PUSH1 0x1 DUP2 EQ PUSH2 0x1FD2 JUMPI PUSH1 0x0 DUP5 ISZERO PUSH2 0x1FC0 JUMPI DUP3 DUP8 ADD MLOAD SWAP1 POP JUMPDEST PUSH2 0x1FCA DUP6 DUP3 PUSH2 0x1F4C JUMP JUMPDEST DUP7 SSTORE POP PUSH2 0x2032 JUMP JUMPDEST PUSH1 0x1F NOT DUP5 AND PUSH2 0x1FE0 DUP7 PUSH2 0x1DBC JUMP JUMPDEST PUSH1 0x0 JUMPDEST DUP3 DUP2 LT ISZERO PUSH2 0x2008 JUMPI DUP5 DUP10 ADD MLOAD DUP3 SSTORE PUSH1 0x1 DUP3 ADD SWAP2 POP PUSH1 0x20 DUP6 ADD SWAP5 POP PUSH1 0x20 DUP2 ADD SWAP1 POP PUSH2 0x1FE3 JUMP JUMPDEST DUP7 DUP4 LT ISZERO PUSH2 0x2025 JUMPI DUP5 DUP10 ADD MLOAD PUSH2 0x2021 PUSH1 0x1F DUP10 AND DUP3 PUSH2 0x1F2E JUMP JUMPDEST DUP4 SSTORE POP JUMPDEST PUSH1 0x1 PUSH1 0x2 DUP9 MUL ADD DUP9 SSTORE POP POP POP JUMPDEST POP POP POP POP POP POP JUMP JUMPDEST PUSH1 0x0 PUSH1 0x60 DUP4 ADD PUSH1 0x0 DUP4 ADD MLOAD PUSH2 0x2052 PUSH1 0x0 DUP7 ADD DUP3 PUSH2 0x126C JUMP JUMPDEST POP PUSH1 0x20 DUP4 ADD MLOAD DUP5 DUP3 SUB PUSH1 0x20 DUP7 ADD MSTORE PUSH2 0x206A DUP3 DUP3 PUSH2 0x12D2 JUMP JUMPDEST SWAP2 POP POP PUSH1 0x40 DUP4 ADD MLOAD DUP5 DUP3 SUB PUSH1 0x40 DUP7 ADD MSTORE PUSH2 0x2084 DUP3 DUP3 PUSH2 0x12D2 JUMP JUMPDEST SWAP2 POP POP DUP1 SWAP2 POP POP SWAP3 SWAP2 POP POP JUMP JUMPDEST PUSH1 0x0 PUSH1 0x20 DUP3 ADD SWAP1 POP DUP2 DUP2 SUB PUSH1 0x0 DUP4 ADD MSTORE PUSH2 0x20AB DUP2 DUP5 PUSH2 0x203A JUMP JUMPDEST SWAP1 POP SWAP3 SWAP2 POP POP JUMP INVALID LOG2 PUSH5 0x6970667358 0x22 SLT KECCAK256 0x25 0xBB SWAP15 SUB 0x4A 0xAF 0xC7 PUSH20 0x14BD0BFFD06723C4512C2DBCA15005C2EA6A9F41 MUL PUSH28 0x33E164736F6C63430008110033000000000000000000000000000000 "
        },
        "methodIdentifiers": {
          "_getNFT(address)": "99f11010",
          "approve(address,uint256)": "095ea7b3",
          "balanceOf(address)": "70a08231",
          "checkIsMinted(address)": "6e13bd20",
          "getApproved(uint256)": "081812fc",
          "getIsMint(address)": "1a66ab05",
          "getNFT(address)": "161a6c1e",
          "isApprovedForAll(address,address)": "e985e9c5",
          "isMint(address,uint256)": "05bde45e",
          "mint(uint256,address,string,string)": "e932ad19",
          "ownerOf(uint256)": "6352211e",
          "safeTransferFrom(address,address,uint256)": "42842e0e",
          "safeTransferFrom(address,address,uint256,bytes)": "b88d4fde",
          "setApprovalForAll(address,bool)": "a22cb465",
          "supportsInterface(bytes4)": "01ffc9a7",
          "transferFrom(address,address,uint256)": "23b872dd"
        }
      }
    }
  }
}